{
	"data": {
		"bytecode": {
			"linkReferences": {},
			"object": "60806040525f600155348015610013575f80fd5b50335f806101000a81548173ffffffffffffffffffffffffffffffffffffffff021916908373ffffffffffffffffffffffffffffffffffffffff1602179055506129b3806100605f395ff3fe608060405234801561000f575f80fd5b50600436106100e8575f3560e01c806326541b561161008a5780637c99fbc3116100645780637c99fbc31461026f5780638c68bfe71461028b578063a3660908146102a9578063a598d03c146102c7576100e8565b806326541b56146101f05780633477ee2e1461020c5780635df813301461023d576100e8565b8063089ed71e116100c6578063089ed71e146101445780630d1c0e97146101745780631004ea25146101a45780631a1625a5146101d4576100e8565b80630383badc146100ec57806305c1112d1461010857806306a49fce14610126575b5f80fd5b61010660048036038101906101019190611967565b6102f8565b005b610110610484565b60405161011d9190611be2565b60405180910390f35b61012e6105cf565b60405161013b9190611cf7565b60405180910390f35b61015e60048036038101906101599190611e43565b6106c4565b60405161016b9190611f92565b60405180910390f35b61018e60048036038101906101899190611967565b610a24565b60405161019b9190611fec565b60405180910390f35b6101be60048036038101906101b99190611e43565b610b44565b6040516101cb9190611cf7565b60405180910390f35b6101ee60048036038101906101e9919061200c565b610e30565b005b61020a60048036038101906102059190612066565b610f96565b005b61022660048036038101906102219190611967565b611197565b604051610234929190612133565b60405180910390f35b61025760048036038101906102529190611967565b61124c565b60405161026693929190612161565b60405180910390f35b610289600480360381019061028491906121f7565b611307565b005b610293611349565b6040516102a09190612222565b60405180910390f35b6102b161134f565b6040516102be919061224a565b60405180910390f35b6102e160048036038101906102dc9190611967565b611376565b6040516102ef929190612263565b60405180910390f35b4260026001548154811061030f5761030e612291565b5b905f5260205f209060030201600101541161035f576040517f08c379a000000000000000000000000000000000000000000000000000000000815260040161035690612308565b60405180910390fd5b610367611846565b81815f01818152505060026001548154811061038657610385612291565b5b905f5260205f2090600302015f01805461039f90612353565b80601f01602080910402602001604051908101604052809291908181526020018280546103cb90612353565b80156104165780601f106103ed57610100808354040283529160200191610416565b820191905f5260205f20905b8154815290600101906020018083116103f957829003601f168201915b5050505050816020018190525042816040018181525050600381908060018154018082558091505060019003905f5260205f2090600302015f909190919091505f820151815f015560208201518160010190816104739190612520565b506040820151816002015550505050565b60606002805480602002602001604051908101604052809291908181526020015f905b828210156105c6578382905f5260205f2090600302016040518060600160405290815f820180546104d790612353565b80601f016020809104026020016040519081016040528092919081815260200182805461050390612353565b801561054e5780601f106105255761010080835404028352916020019161054e565b820191905f5260205f20905b81548152906001019060200180831161053157829003601f168201915b5050505050815260200160018201548152602001600282018054806020026020016040519081016040528092919081815260200182805480156105ae57602002820191905f5260205f20905b81548152602001906001019080831161059a575b505050505081525050815260200190600101906104a7565b50505050905090565b60606004805480602002602001604051908101604052809291908181526020015f905b828210156106bb578382905f5260205f2090600202016040518060400160405290815f820154815260200160018201805461062c90612353565b80601f016020809104026020016040519081016040528092919081815260200182805461065890612353565b80156106a35780601f1061067a576101008083540402835291602001916106a3565b820191905f5260205f20905b81548152906001019060200180831161068657829003601f168201915b505050505081525050815260200190600101906105f2565b50505050905090565b60606106cf8261142b565b61070e576040517f08c379a000000000000000000000000000000000000000000000000000000000815260040161070590612639565b60405180910390fd5b60605f5b600380549050811015610a1a5761087c6003828154811061073657610735612291565b5b905f5260205f209060030201600101805461075090612353565b80601f016020809104026020016040519081016040528092919081815260200182805461077c90612353565b80156107c75780601f1061079e576101008083540402835291602001916107c7565b820191905f5260205f20905b8154815290600101906020018083116107aa57829003601f168201915b50505050506002600154815481106107e2576107e1612291565b5b905f5260205f2090600302015f0180546107fb90612353565b80601f016020809104026020016040519081016040528092919081815260200182805461082790612353565b80156108725780601f1061084957610100808354040283529160200191610872565b820191905f5260205f20905b81548152906001019060200180831161085557829003601f168201915b5050505050611519565b15610a0d575f8061088c86610b44565b90505f5b815181101561090257600384815481106108ad576108ac612291565b5b905f5260205f2090600302015f01548282815181106108cf576108ce612291565b5b60200260200101515f0151036108ef5780806108ea90612684565b915092505b80806108fa90612684565b915050610890565b505f82036109a3575f6109426003848061091b906126cb565b95508154811061092e5761092d612291565b5b905f5260205f2090600302015f0154610a24565b905061094c611865565b815f0151815f01818152505081602001518160200181905250600181604001818152505080866001885161098091906126f2565b8151811061099157610990612291565b5b60200260200101819052505050610a0a565b60018483806109b1906126cb565b9450815181106109c4576109c3612291565b5b6020026020010151604001516109da91906126f2565b8483806109e6906126cb565b9450815181106109f9576109f8612291565b5b602002602001015160400181815250505b50505b8080600101915050610712565b5080915050919050565b610a2c611884565b5f5b600480549050811015610b3d578260048281548110610a5057610a4f612291565b5b905f5260205f2090600202015f015403610b305760048181548110610a7857610a77612291565b5b905f5260205f2090600202016040518060400160405290815f8201548152602001600182018054610aa890612353565b80601f0160208091040260200160405190810160405280929190818152602001828054610ad490612353565b8015610b1f5780601f10610af657610100808354040283529160200191610b1f565b820191905f5260205f20905b815481529060010190602001808311610b0257829003601f168201915b505050505081525050915050610b3f565b8080600101915050610a2e565b505b919050565b6060610b4f8261142b565b610b8e576040517f08c379a0000000000000000000000000000000000000000000000000000000008152600401610b8590612639565b60405180910390fd5b5f600260015481548110610ba557610ba4612291565b5b905f5260205f2090600302016040518060600160405290815f82018054610bcb90612353565b80601f0160208091040260200160405190810160405280929190818152602001828054610bf790612353565b8015610c425780601f10610c1957610100808354040283529160200191610c42565b820191905f5260205f20905b815481529060010190602001808311610c2557829003601f168201915b505050505081526020016001820154815260200160028201805480602002602001604051908101604052809291908181526020018280548015610ca257602002820191905f5260205f20905b815481526020019060010190808311610c8e575b505050505081525050905060605f5b600260015481548110610cc757610cc6612291565b5b905f5260205f20906003020160020180549050811015610d38575f610d0984604001518381518110610cfc57610cfb612291565b5b6020026020010151610a24565b905080838381518110610d1f57610d1e612291565b5b6020026020010181905250508080600101915050610cb1565b506004805480602002602001604051908101604052809291908181526020015f905b82821015610e23578382905f5260205f2090600202016040518060400160405290815f8201548152602001600182018054610d9490612353565b80601f0160208091040260200160405190810160405280929190818152602001828054610dc090612353565b8015610e0b5780601f10610de257610100808354040283529160200191610e0b565b820191905f5260205f20905b815481529060010190602001808311610dee57829003601f168201915b50505050508152505081526020019060010190610d5a565b5050505092505050919050565b5f8054906101000a900473ffffffffffffffffffffffffffffffffffffffff1673ffffffffffffffffffffffffffffffffffffffff163373ffffffffffffffffffffffffffffffffffffffff1614610ebd576040517f08c379a0000000000000000000000000000000000000000000000000000000008152600401610eb49061276f565b60405180910390fd5b610ec68261142b565b15610f06576040517f08c379a0000000000000000000000000000000000000000000000000000000008152600401610efd906127d7565b60405180910390fd5b610f0e61189d565b82815f01819052504282610f2291906126f2565b816020018181525050600281908060018154018082558091505060019003905f5260205f2090600302015f909190919091505f820151815f019081610f679190612520565b50602082015181600101556040820151816002019080519060200190610f8e9291906118bd565b505050505050565b5f8054906101000a900473ffffffffffffffffffffffffffffffffffffffff1673ffffffffffffffffffffffffffffffffffffffff163373ffffffffffffffffffffffffffffffffffffffff1614611023576040517f08c379a000000000000000000000000000000000000000000000000000000000815260040161101a9061283f565b60405180910390fd5b61102c8161142b565b61106b576040517f08c379a0000000000000000000000000000000000000000000000000000000008152600401611062906128a7565b60405180910390fd5b61107482611583565b6110b3576040517f08c379a00000000000000000000000000000000000000000000000000000000081526004016110aa9061290f565b60405180910390fd5b5f60016004805490506110c691906126f2565b90505f6110d284611739565b90505f8103611144576110e3611884565b84816020018190525082815f018181525050600481908060018154018082558091505060019003905f5260205f2090600202015f909190919091505f820151815f0155602082015181600101908161113b9190612520565b50505050611148565b8091505b60026001548154811061115e5761115d612291565b5b905f5260205f20906003020160020182908060018154018082558091505060019003905f5260205f20015f909190919091505550505050565b600481815481106111a6575f80fd5b905f5260205f2090600202015f91509050805f0154908060010180546111cb90612353565b80601f01602080910402602001604051908101604052809291908181526020018280546111f790612353565b80156112425780601f1061121957610100808354040283529160200191611242565b820191905f5260205f20905b81548152906001019060200180831161122557829003601f168201915b5050505050905082565b6003818154811061125b575f80fd5b905f5260205f2090600302015f91509050805f01549080600101805461128090612353565b80601f01602080910402602001604051908101604052809291908181526020018280546112ac90612353565b80156112f75780601f106112ce576101008083540402835291602001916112f7565b820191905f5260205f20905b8154815290600101906020018083116112da57829003601f168201915b5050505050908060020154905083565b805f806101000a81548173ffffffffffffffffffffffffffffffffffffffff021916908373ffffffffffffffffffffffffffffffffffffffff16021790555050565b60015481565b5f805f9054906101000a900473ffffffffffffffffffffffffffffffffffffffff16905090565b60028181548110611385575f80fd5b905f5260205f2090600302015f91509050805f0180546113a490612353565b80601f01602080910402602001604051908101604052809291908181526020018280546113d090612353565b801561141b5780601f106113f25761010080835404028352916020019161141b565b820191905f5260205f20905b8154815290600101906020018083116113fe57829003601f168201915b5050505050908060010154905082565b5f805f90505b600280549050811015611513576114f06002828154811061145557611454612291565b5b905f5260205f2090600302015f01805461146e90612353565b80601f016020809104026020016040519081016040528092919081815260200182805461149a90612353565b80156114e55780601f106114bc576101008083540402835291602001916114e5565b820191905f5260205f20905b8154815290600101906020018083116114c857829003601f168201915b505050505084611519565b15611505578060018190555060019150611506565b5b8080600101915050611431565b50919050565b5f815183511461152b575f905061157d565b8160405160200161153c9190612967565b60405160208183030381529060405280519060200120836040516020016115639190612967565b604051602081830303815290604052805190602001201490505b92915050565b5f805f90505f5b60048054905081101561168c575f600482815481106115ac576115ab612291565b5b905f5260205f2090600202016040518060400160405290815f82015481526020016001820180546115dc90612353565b80601f016020809104026020016040519081016040528092919081815260200182805461160890612353565b80156116535780601f1061162a57610100808354040283529160200191611653565b820191905f5260205f20905b81548152906001019060200180831161163657829003601f168201915b505050505081525050905061166c816020015186611519565b1561167d57805f015192505061167f565b505b808060010191505061158a565b505f810361169d575f915050611734565b5f805b6002600154815481106116b6576116b5612291565b5b905f5260205f2090600302016002018054905081101561172d576002600154815481106116e6576116e5612291565b5b905f5260205f209060030201600201818154811061170757611706612291565b5b905f5260205f200154830361171f5760019150611720565b5b80806001019150506116a0565b5080925050505b919050565b5f805f90505b60048054905081101561183c576117ff6004828154811061176357611762612291565b5b905f5260205f209060020201600101805461177d90612353565b80601f01602080910402602001604051908101604052809291908181526020018280546117a990612353565b80156117f45780601f106117cb576101008083540402835291602001916117f4565b820191905f5260205f20905b8154815290600101906020018083116117d757829003601f168201915b505050505084611519565b1561182f576004818154811061181857611817612291565b5b905f5260205f2090600202015f0154915050611841565b808060010191505061173f565b505f90505b919050565b60405180606001604052805f8152602001606081526020015f81525090565b60405180606001604052805f8152602001606081526020015f81525090565b60405180604001604052805f8152602001606081525090565b6040518060600160405280606081526020015f8152602001606081525090565b828054828255905f5260205f209081019282156118f7579160200282015b828111156118f65782518255916020019190600101906118db565b5b5090506119049190611908565b5090565b5b8082111561191f575f815f905550600101611909565b5090565b5f604051905090565b5f80fd5b5f80fd5b5f819050919050565b61194681611934565b8114611950575f80fd5b50565b5f813590506119618161193d565b92915050565b5f6020828403121561197c5761197b61192c565b5b5f61198984828501611953565b91505092915050565b5f81519050919050565b5f82825260208201905092915050565b5f819050602082019050919050565b5f81519050919050565b5f82825260208201905092915050565b5f5b838110156119f25780820151818401526020810190506119d7565b5f8484015250505050565b5f601f19601f8301169050919050565b5f611a17826119bb565b611a2181856119c5565b9350611a318185602086016119d5565b611a3a816119fd565b840191505092915050565b611a4e81611934565b82525050565b5f81519050919050565b5f82825260208201905092915050565b5f819050602082019050919050565b5f611a888383611a45565b60208301905092915050565b5f602082019050919050565b5f611aaa82611a54565b611ab48185611a5e565b9350611abf83611a6e565b805f5b83811015611aef578151611ad68882611a7d565b9750611ae183611a94565b925050600181019050611ac2565b5085935050505092915050565b5f606083015f8301518482035f860152611b168282611a0d565b9150506020830151611b2b6020860182611a45565b5060408301518482036040860152611b438282611aa0565b9150508091505092915050565b5f611b5b8383611afc565b905092915050565b5f602082019050919050565b5f611b7982611992565b611b83818561199c565b935083602082028501611b95856119ac565b805f5b85811015611bd05784840389528151611bb18582611b50565b9450611bbc83611b63565b925060208a01995050600181019050611b98565b50829750879550505050505092915050565b5f6020820190508181035f830152611bfa8184611b6f565b905092915050565b5f81519050919050565b5f82825260208201905092915050565b5f819050602082019050919050565b5f604083015f830151611c405f860182611a45565b5060208301518482036020860152611c588282611a0d565b9150508091505092915050565b5f611c708383611c2b565b905092915050565b5f602082019050919050565b5f611c8e82611c02565b611c988185611c0c565b935083602082028501611caa85611c1c565b805f5b85811015611ce55784840389528151611cc68582611c65565b9450611cd183611c78565b925060208a01995050600181019050611cad565b50829750879550505050505092915050565b5f6020820190508181035f830152611d0f8184611c84565b905092915050565b5f80fd5b5f80fd5b7f4e487b71000000000000000000000000000000000000000000000000000000005f52604160045260245ffd5b611d55826119fd565b810181811067ffffffffffffffff82111715611d7457611d73611d1f565b5b80604052505050565b5f611d86611923565b9050611d928282611d4c565b919050565b5f67ffffffffffffffff821115611db157611db0611d1f565b5b611dba826119fd565b9050602081019050919050565b828183375f83830152505050565b5f611de7611de284611d97565b611d7d565b905082815260208101848484011115611e0357611e02611d1b565b5b611e0e848285611dc7565b509392505050565b5f82601f830112611e2a57611e29611d17565b5b8135611e3a848260208601611dd5565b91505092915050565b5f60208284031215611e5857611e5761192c565b5b5f82013567ffffffffffffffff811115611e7557611e74611930565b5b611e8184828501611e16565b91505092915050565b5f81519050919050565b5f82825260208201905092915050565b5f819050602082019050919050565b5f606083015f830151611ec85f860182611a45565b5060208301518482036020860152611ee08282611a0d565b9150506040830151611ef56040860182611a45565b508091505092915050565b5f611f0b8383611eb3565b905092915050565b5f602082019050919050565b5f611f2982611e8a565b611f338185611e94565b935083602082028501611f4585611ea4565b805f5b85811015611f805784840389528151611f618582611f00565b9450611f6c83611f13565b925060208a01995050600181019050611f48565b50829750879550505050505092915050565b5f6020820190508181035f830152611faa8184611f1f565b905092915050565b5f604083015f830151611fc75f860182611a45565b5060208301518482036020860152611fdf8282611a0d565b9150508091505092915050565b5f6020820190508181035f8301526120048184611fb2565b905092915050565b5f80604083850312156120225761202161192c565b5b5f83013567ffffffffffffffff81111561203f5761203e611930565b5b61204b85828601611e16565b925050602061205c85828601611953565b9150509250929050565b5f806040838503121561207c5761207b61192c565b5b5f83013567ffffffffffffffff81111561209957612098611930565b5b6120a585828601611e16565b925050602083013567ffffffffffffffff8111156120c6576120c5611930565b5b6120d285828601611e16565b9150509250929050565b6120e581611934565b82525050565b5f82825260208201905092915050565b5f612105826119bb565b61210f81856120eb565b935061211f8185602086016119d5565b612128816119fd565b840191505092915050565b5f6040820190506121465f8301856120dc565b818103602083015261215881846120fb565b90509392505050565b5f6060820190506121745f8301866120dc565b818103602083015261218681856120fb565b905061219560408301846120dc565b949350505050565b5f73ffffffffffffffffffffffffffffffffffffffff82169050919050565b5f6121c68261219d565b9050919050565b6121d6816121bc565b81146121e0575f80fd5b50565b5f813590506121f1816121cd565b92915050565b5f6020828403121561220c5761220b61192c565b5b5f612219848285016121e3565b91505092915050565b5f6020820190506122355f8301846120dc565b92915050565b612244816121bc565b82525050565b5f60208201905061225d5f83018461223b565b92915050565b5f6040820190508181035f83015261227b81856120fb565b905061228a60208301846120dc565b9392505050565b7f4e487b71000000000000000000000000000000000000000000000000000000005f52603260045260245ffd5b7f4e6f206f70656e20766f74696e670000000000000000000000000000000000005f82015250565b5f6122f2600e836120eb565b91506122fd826122be565b602082019050919050565b5f6020820190508181035f83015261231f816122e6565b9050919050565b7f4e487b71000000000000000000000000000000000000000000000000000000005f52602260045260245ffd5b5f600282049050600182168061236a57607f821691505b60208210810361237d5761237c612326565b5b50919050565b5f819050815f5260205f209050919050565b5f6020601f8301049050919050565b5f82821b905092915050565b5f600883026123df7fffffffffffffffffffffffffffffffffffffffffffffffffffffffffffffffff826123a4565b6123e986836123a4565b95508019841693508086168417925050509392505050565b5f819050919050565b5f61242461241f61241a84611934565b612401565b611934565b9050919050565b5f819050919050565b61243d8361240a565b6124516124498261242b565b8484546123b0565b825550505050565b5f90565b612465612459565b612470818484612434565b505050565b5b81811015612493576124885f8261245d565b600181019050612476565b5050565b601f8211156124d8576124a981612383565b6124b284612395565b810160208510156124c1578190505b6124d56124cd85612395565b830182612475565b50505b505050565b5f82821c905092915050565b5f6124f85f19846008026124dd565b1980831691505092915050565b5f61251083836124e9565b9150826002028217905092915050565b612529826119bb565b67ffffffffffffffff81111561254257612541611d1f565b5b61254c8254612353565b612557828285612497565b5f60209050601f831160018114612588575f8415612576578287015190505b6125808582612505565b8655506125e7565b601f19841661259686612383565b5f5b828110156125bd57848901518255600182019150602085019450602081019050612598565b868310156125da57848901516125d6601f8916826124e9565b8355505b6001600288020188555050505b505050505050565b7f566f74696e67206e6f7420666f756e64000000000000000000000000000000005f82015250565b5f6126236010836120eb565b915061262e826125ef565b602082019050919050565b5f6020820190508181035f83015261265081612617565b9050919050565b7f4e487b71000000000000000000000000000000000000000000000000000000005f52601160045260245ffd5b5f61268e82611934565b91507fffffffffffffffffffffffffffffffffffffffffffffffffffffffffffffffff82036126c0576126bf612657565b5b600182019050919050565b5f6126d582611934565b91505f82036126e7576126e6612657565b5b600182039050919050565b5f6126fc82611934565b915061270783611934565b925082820190508082111561271f5761271e612657565b5b92915050565b7f496e76616c69642073656e6465720000000000000000000000000000000000005f82015250565b5f612759600e836120eb565b915061276482612725565b602082019050919050565b5f6020820190508181035f8301526127868161274d565b9050919050565b7f566f74696e6720616c72656164792065786973742100000000000000000000005f82015250565b5f6127c16015836120eb565b91506127cc8261278d565b602082019050919050565b5f6020820190508181035f8301526127ee816127b5565b9050919050565b7f596f75206172656e2774206f776e6572000000000000000000000000000000005f82015250565b5f6128296010836120eb565b9150612834826127f5565b602082019050919050565b5f6020820190508181035f8301526128568161281d565b9050919050565b7f566f74696e67206e6f7420666f756e64210000000000000000000000000000005f82015250565b5f6128916011836120eb565b915061289c8261285d565b602082019050919050565b5f6020820190508181035f8301526128be81612885565b9050919050565b7f416c726561647920696e677265737365642100000000000000000000000000005f82015250565b5f6128f96012836120eb565b9150612904826128c5565b602082019050919050565b5f6020820190508181035f830152612926816128ed565b9050919050565b5f81905092915050565b5f612941826119bb565b61294b818561292d565b935061295b8185602086016119d5565b80840191505092915050565b5f6129728284612937565b91508190509291505056fea2646970667358221220289bbece0cc7fedb68004115a399412c03d212d6c03f78679f3aef65ef9c555864736f6c63430008160033",
			"opcodes": "PUSH1 0x80 PUSH1 0x40 MSTORE PUSH0 PUSH1 0x1 SSTORE CALLVALUE DUP1 ISZERO PUSH2 0x13 JUMPI PUSH0 DUP1 REVERT JUMPDEST POP CALLER PUSH0 DUP1 PUSH2 0x100 EXP DUP2 SLOAD DUP2 PUSH20 0xFFFFFFFFFFFFFFFFFFFFFFFFFFFFFFFFFFFFFFFF MUL NOT AND SWAP1 DUP4 PUSH20 0xFFFFFFFFFFFFFFFFFFFFFFFFFFFFFFFFFFFFFFFF AND MUL OR SWAP1 SSTORE POP PUSH2 0x29B3 DUP1 PUSH2 0x60 PUSH0 CODECOPY PUSH0 RETURN INVALID PUSH1 0x80 PUSH1 0x40 MSTORE CALLVALUE DUP1 ISZERO PUSH2 0xF JUMPI PUSH0 DUP1 REVERT JUMPDEST POP PUSH1 0x4 CALLDATASIZE LT PUSH2 0xE8 JUMPI PUSH0 CALLDATALOAD PUSH1 0xE0 SHR DUP1 PUSH4 0x26541B56 GT PUSH2 0x8A JUMPI DUP1 PUSH4 0x7C99FBC3 GT PUSH2 0x64 JUMPI DUP1 PUSH4 0x7C99FBC3 EQ PUSH2 0x26F JUMPI DUP1 PUSH4 0x8C68BFE7 EQ PUSH2 0x28B JUMPI DUP1 PUSH4 0xA3660908 EQ PUSH2 0x2A9 JUMPI DUP1 PUSH4 0xA598D03C EQ PUSH2 0x2C7 JUMPI PUSH2 0xE8 JUMP JUMPDEST DUP1 PUSH4 0x26541B56 EQ PUSH2 0x1F0 JUMPI DUP1 PUSH4 0x3477EE2E EQ PUSH2 0x20C JUMPI DUP1 PUSH4 0x5DF81330 EQ PUSH2 0x23D JUMPI PUSH2 0xE8 JUMP JUMPDEST DUP1 PUSH4 0x89ED71E GT PUSH2 0xC6 JUMPI DUP1 PUSH4 0x89ED71E EQ PUSH2 0x144 JUMPI DUP1 PUSH4 0xD1C0E97 EQ PUSH2 0x174 JUMPI DUP1 PUSH4 0x1004EA25 EQ PUSH2 0x1A4 JUMPI DUP1 PUSH4 0x1A1625A5 EQ PUSH2 0x1D4 JUMPI PUSH2 0xE8 JUMP JUMPDEST DUP1 PUSH4 0x383BADC EQ PUSH2 0xEC JUMPI DUP1 PUSH4 0x5C1112D EQ PUSH2 0x108 JUMPI DUP1 PUSH4 0x6A49FCE EQ PUSH2 0x126 JUMPI JUMPDEST PUSH0 DUP1 REVERT JUMPDEST PUSH2 0x106 PUSH1 0x4 DUP1 CALLDATASIZE SUB DUP2 ADD SWAP1 PUSH2 0x101 SWAP2 SWAP1 PUSH2 0x1967 JUMP JUMPDEST PUSH2 0x2F8 JUMP JUMPDEST STOP JUMPDEST PUSH2 0x110 PUSH2 0x484 JUMP JUMPDEST PUSH1 0x40 MLOAD PUSH2 0x11D SWAP2 SWAP1 PUSH2 0x1BE2 JUMP JUMPDEST PUSH1 0x40 MLOAD DUP1 SWAP2 SUB SWAP1 RETURN JUMPDEST PUSH2 0x12E PUSH2 0x5CF JUMP JUMPDEST PUSH1 0x40 MLOAD PUSH2 0x13B SWAP2 SWAP1 PUSH2 0x1CF7 JUMP JUMPDEST PUSH1 0x40 MLOAD DUP1 SWAP2 SUB SWAP1 RETURN JUMPDEST PUSH2 0x15E PUSH1 0x4 DUP1 CALLDATASIZE SUB DUP2 ADD SWAP1 PUSH2 0x159 SWAP2 SWAP1 PUSH2 0x1E43 JUMP JUMPDEST PUSH2 0x6C4 JUMP JUMPDEST PUSH1 0x40 MLOAD PUSH2 0x16B SWAP2 SWAP1 PUSH2 0x1F92 JUMP JUMPDEST PUSH1 0x40 MLOAD DUP1 SWAP2 SUB SWAP1 RETURN JUMPDEST PUSH2 0x18E PUSH1 0x4 DUP1 CALLDATASIZE SUB DUP2 ADD SWAP1 PUSH2 0x189 SWAP2 SWAP1 PUSH2 0x1967 JUMP JUMPDEST PUSH2 0xA24 JUMP JUMPDEST PUSH1 0x40 MLOAD PUSH2 0x19B SWAP2 SWAP1 PUSH2 0x1FEC JUMP JUMPDEST PUSH1 0x40 MLOAD DUP1 SWAP2 SUB SWAP1 RETURN JUMPDEST PUSH2 0x1BE PUSH1 0x4 DUP1 CALLDATASIZE SUB DUP2 ADD SWAP1 PUSH2 0x1B9 SWAP2 SWAP1 PUSH2 0x1E43 JUMP JUMPDEST PUSH2 0xB44 JUMP JUMPDEST PUSH1 0x40 MLOAD PUSH2 0x1CB SWAP2 SWAP1 PUSH2 0x1CF7 JUMP JUMPDEST PUSH1 0x40 MLOAD DUP1 SWAP2 SUB SWAP1 RETURN JUMPDEST PUSH2 0x1EE PUSH1 0x4 DUP1 CALLDATASIZE SUB DUP2 ADD SWAP1 PUSH2 0x1E9 SWAP2 SWAP1 PUSH2 0x200C JUMP JUMPDEST PUSH2 0xE30 JUMP JUMPDEST STOP JUMPDEST PUSH2 0x20A PUSH1 0x4 DUP1 CALLDATASIZE SUB DUP2 ADD SWAP1 PUSH2 0x205 SWAP2 SWAP1 PUSH2 0x2066 JUMP JUMPDEST PUSH2 0xF96 JUMP JUMPDEST STOP JUMPDEST PUSH2 0x226 PUSH1 0x4 DUP1 CALLDATASIZE SUB DUP2 ADD SWAP1 PUSH2 0x221 SWAP2 SWAP1 PUSH2 0x1967 JUMP JUMPDEST PUSH2 0x1197 JUMP JUMPDEST PUSH1 0x40 MLOAD PUSH2 0x234 SWAP3 SWAP2 SWAP1 PUSH2 0x2133 JUMP JUMPDEST PUSH1 0x40 MLOAD DUP1 SWAP2 SUB SWAP1 RETURN JUMPDEST PUSH2 0x257 PUSH1 0x4 DUP1 CALLDATASIZE SUB DUP2 ADD SWAP1 PUSH2 0x252 SWAP2 SWAP1 PUSH2 0x1967 JUMP JUMPDEST PUSH2 0x124C JUMP JUMPDEST PUSH1 0x40 MLOAD PUSH2 0x266 SWAP4 SWAP3 SWAP2 SWAP1 PUSH2 0x2161 JUMP JUMPDEST PUSH1 0x40 MLOAD DUP1 SWAP2 SUB SWAP1 RETURN JUMPDEST PUSH2 0x289 PUSH1 0x4 DUP1 CALLDATASIZE SUB DUP2 ADD SWAP1 PUSH2 0x284 SWAP2 SWAP1 PUSH2 0x21F7 JUMP JUMPDEST PUSH2 0x1307 JUMP JUMPDEST STOP JUMPDEST PUSH2 0x293 PUSH2 0x1349 JUMP JUMPDEST PUSH1 0x40 MLOAD PUSH2 0x2A0 SWAP2 SWAP1 PUSH2 0x2222 JUMP JUMPDEST PUSH1 0x40 MLOAD DUP1 SWAP2 SUB SWAP1 RETURN JUMPDEST PUSH2 0x2B1 PUSH2 0x134F JUMP JUMPDEST PUSH1 0x40 MLOAD PUSH2 0x2BE SWAP2 SWAP1 PUSH2 0x224A JUMP JUMPDEST PUSH1 0x40 MLOAD DUP1 SWAP2 SUB SWAP1 RETURN JUMPDEST PUSH2 0x2E1 PUSH1 0x4 DUP1 CALLDATASIZE SUB DUP2 ADD SWAP1 PUSH2 0x2DC SWAP2 SWAP1 PUSH2 0x1967 JUMP JUMPDEST PUSH2 0x1376 JUMP JUMPDEST PUSH1 0x40 MLOAD PUSH2 0x2EF SWAP3 SWAP2 SWAP1 PUSH2 0x2263 JUMP JUMPDEST PUSH1 0x40 MLOAD DUP1 SWAP2 SUB SWAP1 RETURN JUMPDEST TIMESTAMP PUSH1 0x2 PUSH1 0x1 SLOAD DUP2 SLOAD DUP2 LT PUSH2 0x30F JUMPI PUSH2 0x30E PUSH2 0x2291 JUMP JUMPDEST JUMPDEST SWAP1 PUSH0 MSTORE PUSH1 0x20 PUSH0 KECCAK256 SWAP1 PUSH1 0x3 MUL ADD PUSH1 0x1 ADD SLOAD GT PUSH2 0x35F JUMPI PUSH1 0x40 MLOAD PUSH32 0x8C379A000000000000000000000000000000000000000000000000000000000 DUP2 MSTORE PUSH1 0x4 ADD PUSH2 0x356 SWAP1 PUSH2 0x2308 JUMP JUMPDEST PUSH1 0x40 MLOAD DUP1 SWAP2 SUB SWAP1 REVERT JUMPDEST PUSH2 0x367 PUSH2 0x1846 JUMP JUMPDEST DUP2 DUP2 PUSH0 ADD DUP2 DUP2 MSTORE POP POP PUSH1 0x2 PUSH1 0x1 SLOAD DUP2 SLOAD DUP2 LT PUSH2 0x386 JUMPI PUSH2 0x385 PUSH2 0x2291 JUMP JUMPDEST JUMPDEST SWAP1 PUSH0 MSTORE PUSH1 0x20 PUSH0 KECCAK256 SWAP1 PUSH1 0x3 MUL ADD PUSH0 ADD DUP1 SLOAD PUSH2 0x39F SWAP1 PUSH2 0x2353 JUMP JUMPDEST DUP1 PUSH1 0x1F ADD PUSH1 0x20 DUP1 SWAP2 DIV MUL PUSH1 0x20 ADD PUSH1 0x40 MLOAD SWAP1 DUP2 ADD PUSH1 0x40 MSTORE DUP1 SWAP3 SWAP2 SWAP1 DUP2 DUP2 MSTORE PUSH1 0x20 ADD DUP3 DUP1 SLOAD PUSH2 0x3CB SWAP1 PUSH2 0x2353 JUMP JUMPDEST DUP1 ISZERO PUSH2 0x416 JUMPI DUP1 PUSH1 0x1F LT PUSH2 0x3ED JUMPI PUSH2 0x100 DUP1 DUP4 SLOAD DIV MUL DUP4 MSTORE SWAP2 PUSH1 0x20 ADD SWAP2 PUSH2 0x416 JUMP JUMPDEST DUP3 ADD SWAP2 SWAP1 PUSH0 MSTORE PUSH1 0x20 PUSH0 KECCAK256 SWAP1 JUMPDEST DUP2 SLOAD DUP2 MSTORE SWAP1 PUSH1 0x1 ADD SWAP1 PUSH1 0x20 ADD DUP1 DUP4 GT PUSH2 0x3F9 JUMPI DUP3 SWAP1 SUB PUSH1 0x1F AND DUP3 ADD SWAP2 JUMPDEST POP POP POP POP POP DUP2 PUSH1 0x20 ADD DUP2 SWAP1 MSTORE POP TIMESTAMP DUP2 PUSH1 0x40 ADD DUP2 DUP2 MSTORE POP POP PUSH1 0x3 DUP2 SWAP1 DUP1 PUSH1 0x1 DUP2 SLOAD ADD DUP1 DUP3 SSTORE DUP1 SWAP2 POP POP PUSH1 0x1 SWAP1 SUB SWAP1 PUSH0 MSTORE PUSH1 0x20 PUSH0 KECCAK256 SWAP1 PUSH1 0x3 MUL ADD PUSH0 SWAP1 SWAP2 SWAP1 SWAP2 SWAP1 SWAP2 POP PUSH0 DUP3 ADD MLOAD DUP2 PUSH0 ADD SSTORE PUSH1 0x20 DUP3 ADD MLOAD DUP2 PUSH1 0x1 ADD SWAP1 DUP2 PUSH2 0x473 SWAP2 SWAP1 PUSH2 0x2520 JUMP JUMPDEST POP PUSH1 0x40 DUP3 ADD MLOAD DUP2 PUSH1 0x2 ADD SSTORE POP POP POP POP JUMP JUMPDEST PUSH1 0x60 PUSH1 0x2 DUP1 SLOAD DUP1 PUSH1 0x20 MUL PUSH1 0x20 ADD PUSH1 0x40 MLOAD SWAP1 DUP2 ADD PUSH1 0x40 MSTORE DUP1 SWAP3 SWAP2 SWAP1 DUP2 DUP2 MSTORE PUSH1 0x20 ADD PUSH0 SWAP1 JUMPDEST DUP3 DUP3 LT ISZERO PUSH2 0x5C6 JUMPI DUP4 DUP3 SWAP1 PUSH0 MSTORE PUSH1 0x20 PUSH0 KECCAK256 SWAP1 PUSH1 0x3 MUL ADD PUSH1 0x40 MLOAD DUP1 PUSH1 0x60 ADD PUSH1 0x40 MSTORE SWAP1 DUP2 PUSH0 DUP3 ADD DUP1 SLOAD PUSH2 0x4D7 SWAP1 PUSH2 0x2353 JUMP JUMPDEST DUP1 PUSH1 0x1F ADD PUSH1 0x20 DUP1 SWAP2 DIV MUL PUSH1 0x20 ADD PUSH1 0x40 MLOAD SWAP1 DUP2 ADD PUSH1 0x40 MSTORE DUP1 SWAP3 SWAP2 SWAP1 DUP2 DUP2 MSTORE PUSH1 0x20 ADD DUP3 DUP1 SLOAD PUSH2 0x503 SWAP1 PUSH2 0x2353 JUMP JUMPDEST DUP1 ISZERO PUSH2 0x54E JUMPI DUP1 PUSH1 0x1F LT PUSH2 0x525 JUMPI PUSH2 0x100 DUP1 DUP4 SLOAD DIV MUL DUP4 MSTORE SWAP2 PUSH1 0x20 ADD SWAP2 PUSH2 0x54E JUMP JUMPDEST DUP3 ADD SWAP2 SWAP1 PUSH0 MSTORE PUSH1 0x20 PUSH0 KECCAK256 SWAP1 JUMPDEST DUP2 SLOAD DUP2 MSTORE SWAP1 PUSH1 0x1 ADD SWAP1 PUSH1 0x20 ADD DUP1 DUP4 GT PUSH2 0x531 JUMPI DUP3 SWAP1 SUB PUSH1 0x1F AND DUP3 ADD SWAP2 JUMPDEST POP POP POP POP POP DUP2 MSTORE PUSH1 0x20 ADD PUSH1 0x1 DUP3 ADD SLOAD DUP2 MSTORE PUSH1 0x20 ADD PUSH1 0x2 DUP3 ADD DUP1 SLOAD DUP1 PUSH1 0x20 MUL PUSH1 0x20 ADD PUSH1 0x40 MLOAD SWAP1 DUP2 ADD PUSH1 0x40 MSTORE DUP1 SWAP3 SWAP2 SWAP1 DUP2 DUP2 MSTORE PUSH1 0x20 ADD DUP3 DUP1 SLOAD DUP1 ISZERO PUSH2 0x5AE JUMPI PUSH1 0x20 MUL DUP3 ADD SWAP2 SWAP1 PUSH0 MSTORE PUSH1 0x20 PUSH0 KECCAK256 SWAP1 JUMPDEST DUP2 SLOAD DUP2 MSTORE PUSH1 0x20 ADD SWAP1 PUSH1 0x1 ADD SWAP1 DUP1 DUP4 GT PUSH2 0x59A JUMPI JUMPDEST POP POP POP POP POP DUP2 MSTORE POP POP DUP2 MSTORE PUSH1 0x20 ADD SWAP1 PUSH1 0x1 ADD SWAP1 PUSH2 0x4A7 JUMP JUMPDEST POP POP POP POP SWAP1 POP SWAP1 JUMP JUMPDEST PUSH1 0x60 PUSH1 0x4 DUP1 SLOAD DUP1 PUSH1 0x20 MUL PUSH1 0x20 ADD PUSH1 0x40 MLOAD SWAP1 DUP2 ADD PUSH1 0x40 MSTORE DUP1 SWAP3 SWAP2 SWAP1 DUP2 DUP2 MSTORE PUSH1 0x20 ADD PUSH0 SWAP1 JUMPDEST DUP3 DUP3 LT ISZERO PUSH2 0x6BB JUMPI DUP4 DUP3 SWAP1 PUSH0 MSTORE PUSH1 0x20 PUSH0 KECCAK256 SWAP1 PUSH1 0x2 MUL ADD PUSH1 0x40 MLOAD DUP1 PUSH1 0x40 ADD PUSH1 0x40 MSTORE SWAP1 DUP2 PUSH0 DUP3 ADD SLOAD DUP2 MSTORE PUSH1 0x20 ADD PUSH1 0x1 DUP3 ADD DUP1 SLOAD PUSH2 0x62C SWAP1 PUSH2 0x2353 JUMP JUMPDEST DUP1 PUSH1 0x1F ADD PUSH1 0x20 DUP1 SWAP2 DIV MUL PUSH1 0x20 ADD PUSH1 0x40 MLOAD SWAP1 DUP2 ADD PUSH1 0x40 MSTORE DUP1 SWAP3 SWAP2 SWAP1 DUP2 DUP2 MSTORE PUSH1 0x20 ADD DUP3 DUP1 SLOAD PUSH2 0x658 SWAP1 PUSH2 0x2353 JUMP JUMPDEST DUP1 ISZERO PUSH2 0x6A3 JUMPI DUP1 PUSH1 0x1F LT PUSH2 0x67A JUMPI PUSH2 0x100 DUP1 DUP4 SLOAD DIV MUL DUP4 MSTORE SWAP2 PUSH1 0x20 ADD SWAP2 PUSH2 0x6A3 JUMP JUMPDEST DUP3 ADD SWAP2 SWAP1 PUSH0 MSTORE PUSH1 0x20 PUSH0 KECCAK256 SWAP1 JUMPDEST DUP2 SLOAD DUP2 MSTORE SWAP1 PUSH1 0x1 ADD SWAP1 PUSH1 0x20 ADD DUP1 DUP4 GT PUSH2 0x686 JUMPI DUP3 SWAP1 SUB PUSH1 0x1F AND DUP3 ADD SWAP2 JUMPDEST POP POP POP POP POP DUP2 MSTORE POP POP DUP2 MSTORE PUSH1 0x20 ADD SWAP1 PUSH1 0x1 ADD SWAP1 PUSH2 0x5F2 JUMP JUMPDEST POP POP POP POP SWAP1 POP SWAP1 JUMP JUMPDEST PUSH1 0x60 PUSH2 0x6CF DUP3 PUSH2 0x142B JUMP JUMPDEST PUSH2 0x70E JUMPI PUSH1 0x40 MLOAD PUSH32 0x8C379A000000000000000000000000000000000000000000000000000000000 DUP2 MSTORE PUSH1 0x4 ADD PUSH2 0x705 SWAP1 PUSH2 0x2639 JUMP JUMPDEST PUSH1 0x40 MLOAD DUP1 SWAP2 SUB SWAP1 REVERT JUMPDEST PUSH1 0x60 PUSH0 JUMPDEST PUSH1 0x3 DUP1 SLOAD SWAP1 POP DUP2 LT ISZERO PUSH2 0xA1A JUMPI PUSH2 0x87C PUSH1 0x3 DUP3 DUP2 SLOAD DUP2 LT PUSH2 0x736 JUMPI PUSH2 0x735 PUSH2 0x2291 JUMP JUMPDEST JUMPDEST SWAP1 PUSH0 MSTORE PUSH1 0x20 PUSH0 KECCAK256 SWAP1 PUSH1 0x3 MUL ADD PUSH1 0x1 ADD DUP1 SLOAD PUSH2 0x750 SWAP1 PUSH2 0x2353 JUMP JUMPDEST DUP1 PUSH1 0x1F ADD PUSH1 0x20 DUP1 SWAP2 DIV MUL PUSH1 0x20 ADD PUSH1 0x40 MLOAD SWAP1 DUP2 ADD PUSH1 0x40 MSTORE DUP1 SWAP3 SWAP2 SWAP1 DUP2 DUP2 MSTORE PUSH1 0x20 ADD DUP3 DUP1 SLOAD PUSH2 0x77C SWAP1 PUSH2 0x2353 JUMP JUMPDEST DUP1 ISZERO PUSH2 0x7C7 JUMPI DUP1 PUSH1 0x1F LT PUSH2 0x79E JUMPI PUSH2 0x100 DUP1 DUP4 SLOAD DIV MUL DUP4 MSTORE SWAP2 PUSH1 0x20 ADD SWAP2 PUSH2 0x7C7 JUMP JUMPDEST DUP3 ADD SWAP2 SWAP1 PUSH0 MSTORE PUSH1 0x20 PUSH0 KECCAK256 SWAP1 JUMPDEST DUP2 SLOAD DUP2 MSTORE SWAP1 PUSH1 0x1 ADD SWAP1 PUSH1 0x20 ADD DUP1 DUP4 GT PUSH2 0x7AA JUMPI DUP3 SWAP1 SUB PUSH1 0x1F AND DUP3 ADD SWAP2 JUMPDEST POP POP POP POP POP PUSH1 0x2 PUSH1 0x1 SLOAD DUP2 SLOAD DUP2 LT PUSH2 0x7E2 JUMPI PUSH2 0x7E1 PUSH2 0x2291 JUMP JUMPDEST JUMPDEST SWAP1 PUSH0 MSTORE PUSH1 0x20 PUSH0 KECCAK256 SWAP1 PUSH1 0x3 MUL ADD PUSH0 ADD DUP1 SLOAD PUSH2 0x7FB SWAP1 PUSH2 0x2353 JUMP JUMPDEST DUP1 PUSH1 0x1F ADD PUSH1 0x20 DUP1 SWAP2 DIV MUL PUSH1 0x20 ADD PUSH1 0x40 MLOAD SWAP1 DUP2 ADD PUSH1 0x40 MSTORE DUP1 SWAP3 SWAP2 SWAP1 DUP2 DUP2 MSTORE PUSH1 0x20 ADD DUP3 DUP1 SLOAD PUSH2 0x827 SWAP1 PUSH2 0x2353 JUMP JUMPDEST DUP1 ISZERO PUSH2 0x872 JUMPI DUP1 PUSH1 0x1F LT PUSH2 0x849 JUMPI PUSH2 0x100 DUP1 DUP4 SLOAD DIV MUL DUP4 MSTORE SWAP2 PUSH1 0x20 ADD SWAP2 PUSH2 0x872 JUMP JUMPDEST DUP3 ADD SWAP2 SWAP1 PUSH0 MSTORE PUSH1 0x20 PUSH0 KECCAK256 SWAP1 JUMPDEST DUP2 SLOAD DUP2 MSTORE SWAP1 PUSH1 0x1 ADD SWAP1 PUSH1 0x20 ADD DUP1 DUP4 GT PUSH2 0x855 JUMPI DUP3 SWAP1 SUB PUSH1 0x1F AND DUP3 ADD SWAP2 JUMPDEST POP POP POP POP POP PUSH2 0x1519 JUMP JUMPDEST ISZERO PUSH2 0xA0D JUMPI PUSH0 DUP1 PUSH2 0x88C DUP7 PUSH2 0xB44 JUMP JUMPDEST SWAP1 POP PUSH0 JUMPDEST DUP2 MLOAD DUP2 LT ISZERO PUSH2 0x902 JUMPI PUSH1 0x3 DUP5 DUP2 SLOAD DUP2 LT PUSH2 0x8AD JUMPI PUSH2 0x8AC PUSH2 0x2291 JUMP JUMPDEST JUMPDEST SWAP1 PUSH0 MSTORE PUSH1 0x20 PUSH0 KECCAK256 SWAP1 PUSH1 0x3 MUL ADD PUSH0 ADD SLOAD DUP3 DUP3 DUP2 MLOAD DUP2 LT PUSH2 0x8CF JUMPI PUSH2 0x8CE PUSH2 0x2291 JUMP JUMPDEST JUMPDEST PUSH1 0x20 MUL PUSH1 0x20 ADD ADD MLOAD PUSH0 ADD MLOAD SUB PUSH2 0x8EF JUMPI DUP1 DUP1 PUSH2 0x8EA SWAP1 PUSH2 0x2684 JUMP JUMPDEST SWAP2 POP SWAP3 POP JUMPDEST DUP1 DUP1 PUSH2 0x8FA SWAP1 PUSH2 0x2684 JUMP JUMPDEST SWAP2 POP POP PUSH2 0x890 JUMP JUMPDEST POP PUSH0 DUP3 SUB PUSH2 0x9A3 JUMPI PUSH0 PUSH2 0x942 PUSH1 0x3 DUP5 DUP1 PUSH2 0x91B SWAP1 PUSH2 0x26CB JUMP JUMPDEST SWAP6 POP DUP2 SLOAD DUP2 LT PUSH2 0x92E JUMPI PUSH2 0x92D PUSH2 0x2291 JUMP JUMPDEST JUMPDEST SWAP1 PUSH0 MSTORE PUSH1 0x20 PUSH0 KECCAK256 SWAP1 PUSH1 0x3 MUL ADD PUSH0 ADD SLOAD PUSH2 0xA24 JUMP JUMPDEST SWAP1 POP PUSH2 0x94C PUSH2 0x1865 JUMP JUMPDEST DUP2 PUSH0 ADD MLOAD DUP2 PUSH0 ADD DUP2 DUP2 MSTORE POP POP DUP2 PUSH1 0x20 ADD MLOAD DUP2 PUSH1 0x20 ADD DUP2 SWAP1 MSTORE POP PUSH1 0x1 DUP2 PUSH1 0x40 ADD DUP2 DUP2 MSTORE POP POP DUP1 DUP7 PUSH1 0x1 DUP9 MLOAD PUSH2 0x980 SWAP2 SWAP1 PUSH2 0x26F2 JUMP JUMPDEST DUP2 MLOAD DUP2 LT PUSH2 0x991 JUMPI PUSH2 0x990 PUSH2 0x2291 JUMP JUMPDEST JUMPDEST PUSH1 0x20 MUL PUSH1 0x20 ADD ADD DUP2 SWAP1 MSTORE POP POP POP PUSH2 0xA0A JUMP JUMPDEST PUSH1 0x1 DUP5 DUP4 DUP1 PUSH2 0x9B1 SWAP1 PUSH2 0x26CB JUMP JUMPDEST SWAP5 POP DUP2 MLOAD DUP2 LT PUSH2 0x9C4 JUMPI PUSH2 0x9C3 PUSH2 0x2291 JUMP JUMPDEST JUMPDEST PUSH1 0x20 MUL PUSH1 0x20 ADD ADD MLOAD PUSH1 0x40 ADD MLOAD PUSH2 0x9DA SWAP2 SWAP1 PUSH2 0x26F2 JUMP JUMPDEST DUP5 DUP4 DUP1 PUSH2 0x9E6 SWAP1 PUSH2 0x26CB JUMP JUMPDEST SWAP5 POP DUP2 MLOAD DUP2 LT PUSH2 0x9F9 JUMPI PUSH2 0x9F8 PUSH2 0x2291 JUMP JUMPDEST JUMPDEST PUSH1 0x20 MUL PUSH1 0x20 ADD ADD MLOAD PUSH1 0x40 ADD DUP2 DUP2 MSTORE POP POP JUMPDEST POP POP JUMPDEST DUP1 DUP1 PUSH1 0x1 ADD SWAP2 POP POP PUSH2 0x712 JUMP JUMPDEST POP DUP1 SWAP2 POP POP SWAP2 SWAP1 POP JUMP JUMPDEST PUSH2 0xA2C PUSH2 0x1884 JUMP JUMPDEST PUSH0 JUMPDEST PUSH1 0x4 DUP1 SLOAD SWAP1 POP DUP2 LT ISZERO PUSH2 0xB3D JUMPI DUP3 PUSH1 0x4 DUP3 DUP2 SLOAD DUP2 LT PUSH2 0xA50 JUMPI PUSH2 0xA4F PUSH2 0x2291 JUMP JUMPDEST JUMPDEST SWAP1 PUSH0 MSTORE PUSH1 0x20 PUSH0 KECCAK256 SWAP1 PUSH1 0x2 MUL ADD PUSH0 ADD SLOAD SUB PUSH2 0xB30 JUMPI PUSH1 0x4 DUP2 DUP2 SLOAD DUP2 LT PUSH2 0xA78 JUMPI PUSH2 0xA77 PUSH2 0x2291 JUMP JUMPDEST JUMPDEST SWAP1 PUSH0 MSTORE PUSH1 0x20 PUSH0 KECCAK256 SWAP1 PUSH1 0x2 MUL ADD PUSH1 0x40 MLOAD DUP1 PUSH1 0x40 ADD PUSH1 0x40 MSTORE SWAP1 DUP2 PUSH0 DUP3 ADD SLOAD DUP2 MSTORE PUSH1 0x20 ADD PUSH1 0x1 DUP3 ADD DUP1 SLOAD PUSH2 0xAA8 SWAP1 PUSH2 0x2353 JUMP JUMPDEST DUP1 PUSH1 0x1F ADD PUSH1 0x20 DUP1 SWAP2 DIV MUL PUSH1 0x20 ADD PUSH1 0x40 MLOAD SWAP1 DUP2 ADD PUSH1 0x40 MSTORE DUP1 SWAP3 SWAP2 SWAP1 DUP2 DUP2 MSTORE PUSH1 0x20 ADD DUP3 DUP1 SLOAD PUSH2 0xAD4 SWAP1 PUSH2 0x2353 JUMP JUMPDEST DUP1 ISZERO PUSH2 0xB1F JUMPI DUP1 PUSH1 0x1F LT PUSH2 0xAF6 JUMPI PUSH2 0x100 DUP1 DUP4 SLOAD DIV MUL DUP4 MSTORE SWAP2 PUSH1 0x20 ADD SWAP2 PUSH2 0xB1F JUMP JUMPDEST DUP3 ADD SWAP2 SWAP1 PUSH0 MSTORE PUSH1 0x20 PUSH0 KECCAK256 SWAP1 JUMPDEST DUP2 SLOAD DUP2 MSTORE SWAP1 PUSH1 0x1 ADD SWAP1 PUSH1 0x20 ADD DUP1 DUP4 GT PUSH2 0xB02 JUMPI DUP3 SWAP1 SUB PUSH1 0x1F AND DUP3 ADD SWAP2 JUMPDEST POP POP POP POP POP DUP2 MSTORE POP POP SWAP2 POP POP PUSH2 0xB3F JUMP JUMPDEST DUP1 DUP1 PUSH1 0x1 ADD SWAP2 POP POP PUSH2 0xA2E JUMP JUMPDEST POP JUMPDEST SWAP2 SWAP1 POP JUMP JUMPDEST PUSH1 0x60 PUSH2 0xB4F DUP3 PUSH2 0x142B JUMP JUMPDEST PUSH2 0xB8E JUMPI PUSH1 0x40 MLOAD PUSH32 0x8C379A000000000000000000000000000000000000000000000000000000000 DUP2 MSTORE PUSH1 0x4 ADD PUSH2 0xB85 SWAP1 PUSH2 0x2639 JUMP JUMPDEST PUSH1 0x40 MLOAD DUP1 SWAP2 SUB SWAP1 REVERT JUMPDEST PUSH0 PUSH1 0x2 PUSH1 0x1 SLOAD DUP2 SLOAD DUP2 LT PUSH2 0xBA5 JUMPI PUSH2 0xBA4 PUSH2 0x2291 JUMP JUMPDEST JUMPDEST SWAP1 PUSH0 MSTORE PUSH1 0x20 PUSH0 KECCAK256 SWAP1 PUSH1 0x3 MUL ADD PUSH1 0x40 MLOAD DUP1 PUSH1 0x60 ADD PUSH1 0x40 MSTORE SWAP1 DUP2 PUSH0 DUP3 ADD DUP1 SLOAD PUSH2 0xBCB SWAP1 PUSH2 0x2353 JUMP JUMPDEST DUP1 PUSH1 0x1F ADD PUSH1 0x20 DUP1 SWAP2 DIV MUL PUSH1 0x20 ADD PUSH1 0x40 MLOAD SWAP1 DUP2 ADD PUSH1 0x40 MSTORE DUP1 SWAP3 SWAP2 SWAP1 DUP2 DUP2 MSTORE PUSH1 0x20 ADD DUP3 DUP1 SLOAD PUSH2 0xBF7 SWAP1 PUSH2 0x2353 JUMP JUMPDEST DUP1 ISZERO PUSH2 0xC42 JUMPI DUP1 PUSH1 0x1F LT PUSH2 0xC19 JUMPI PUSH2 0x100 DUP1 DUP4 SLOAD DIV MUL DUP4 MSTORE SWAP2 PUSH1 0x20 ADD SWAP2 PUSH2 0xC42 JUMP JUMPDEST DUP3 ADD SWAP2 SWAP1 PUSH0 MSTORE PUSH1 0x20 PUSH0 KECCAK256 SWAP1 JUMPDEST DUP2 SLOAD DUP2 MSTORE SWAP1 PUSH1 0x1 ADD SWAP1 PUSH1 0x20 ADD DUP1 DUP4 GT PUSH2 0xC25 JUMPI DUP3 SWAP1 SUB PUSH1 0x1F AND DUP3 ADD SWAP2 JUMPDEST POP POP POP POP POP DUP2 MSTORE PUSH1 0x20 ADD PUSH1 0x1 DUP3 ADD SLOAD DUP2 MSTORE PUSH1 0x20 ADD PUSH1 0x2 DUP3 ADD DUP1 SLOAD DUP1 PUSH1 0x20 MUL PUSH1 0x20 ADD PUSH1 0x40 MLOAD SWAP1 DUP2 ADD PUSH1 0x40 MSTORE DUP1 SWAP3 SWAP2 SWAP1 DUP2 DUP2 MSTORE PUSH1 0x20 ADD DUP3 DUP1 SLOAD DUP1 ISZERO PUSH2 0xCA2 JUMPI PUSH1 0x20 MUL DUP3 ADD SWAP2 SWAP1 PUSH0 MSTORE PUSH1 0x20 PUSH0 KECCAK256 SWAP1 JUMPDEST DUP2 SLOAD DUP2 MSTORE PUSH1 0x20 ADD SWAP1 PUSH1 0x1 ADD SWAP1 DUP1 DUP4 GT PUSH2 0xC8E JUMPI JUMPDEST POP POP POP POP POP DUP2 MSTORE POP POP SWAP1 POP PUSH1 0x60 PUSH0 JUMPDEST PUSH1 0x2 PUSH1 0x1 SLOAD DUP2 SLOAD DUP2 LT PUSH2 0xCC7 JUMPI PUSH2 0xCC6 PUSH2 0x2291 JUMP JUMPDEST JUMPDEST SWAP1 PUSH0 MSTORE PUSH1 0x20 PUSH0 KECCAK256 SWAP1 PUSH1 0x3 MUL ADD PUSH1 0x2 ADD DUP1 SLOAD SWAP1 POP DUP2 LT ISZERO PUSH2 0xD38 JUMPI PUSH0 PUSH2 0xD09 DUP5 PUSH1 0x40 ADD MLOAD DUP4 DUP2 MLOAD DUP2 LT PUSH2 0xCFC JUMPI PUSH2 0xCFB PUSH2 0x2291 JUMP JUMPDEST JUMPDEST PUSH1 0x20 MUL PUSH1 0x20 ADD ADD MLOAD PUSH2 0xA24 JUMP JUMPDEST SWAP1 POP DUP1 DUP4 DUP4 DUP2 MLOAD DUP2 LT PUSH2 0xD1F JUMPI PUSH2 0xD1E PUSH2 0x2291 JUMP JUMPDEST JUMPDEST PUSH1 0x20 MUL PUSH1 0x20 ADD ADD DUP2 SWAP1 MSTORE POP POP DUP1 DUP1 PUSH1 0x1 ADD SWAP2 POP POP PUSH2 0xCB1 JUMP JUMPDEST POP PUSH1 0x4 DUP1 SLOAD DUP1 PUSH1 0x20 MUL PUSH1 0x20 ADD PUSH1 0x40 MLOAD SWAP1 DUP2 ADD PUSH1 0x40 MSTORE DUP1 SWAP3 SWAP2 SWAP1 DUP2 DUP2 MSTORE PUSH1 0x20 ADD PUSH0 SWAP1 JUMPDEST DUP3 DUP3 LT ISZERO PUSH2 0xE23 JUMPI DUP4 DUP3 SWAP1 PUSH0 MSTORE PUSH1 0x20 PUSH0 KECCAK256 SWAP1 PUSH1 0x2 MUL ADD PUSH1 0x40 MLOAD DUP1 PUSH1 0x40 ADD PUSH1 0x40 MSTORE SWAP1 DUP2 PUSH0 DUP3 ADD SLOAD DUP2 MSTORE PUSH1 0x20 ADD PUSH1 0x1 DUP3 ADD DUP1 SLOAD PUSH2 0xD94 SWAP1 PUSH2 0x2353 JUMP JUMPDEST DUP1 PUSH1 0x1F ADD PUSH1 0x20 DUP1 SWAP2 DIV MUL PUSH1 0x20 ADD PUSH1 0x40 MLOAD SWAP1 DUP2 ADD PUSH1 0x40 MSTORE DUP1 SWAP3 SWAP2 SWAP1 DUP2 DUP2 MSTORE PUSH1 0x20 ADD DUP3 DUP1 SLOAD PUSH2 0xDC0 SWAP1 PUSH2 0x2353 JUMP JUMPDEST DUP1 ISZERO PUSH2 0xE0B JUMPI DUP1 PUSH1 0x1F LT PUSH2 0xDE2 JUMPI PUSH2 0x100 DUP1 DUP4 SLOAD DIV MUL DUP4 MSTORE SWAP2 PUSH1 0x20 ADD SWAP2 PUSH2 0xE0B JUMP JUMPDEST DUP3 ADD SWAP2 SWAP1 PUSH0 MSTORE PUSH1 0x20 PUSH0 KECCAK256 SWAP1 JUMPDEST DUP2 SLOAD DUP2 MSTORE SWAP1 PUSH1 0x1 ADD SWAP1 PUSH1 0x20 ADD DUP1 DUP4 GT PUSH2 0xDEE JUMPI DUP3 SWAP1 SUB PUSH1 0x1F AND DUP3 ADD SWAP2 JUMPDEST POP POP POP POP POP DUP2 MSTORE POP POP DUP2 MSTORE PUSH1 0x20 ADD SWAP1 PUSH1 0x1 ADD SWAP1 PUSH2 0xD5A JUMP JUMPDEST POP POP POP POP SWAP3 POP POP POP SWAP2 SWAP1 POP JUMP JUMPDEST PUSH0 DUP1 SLOAD SWAP1 PUSH2 0x100 EXP SWAP1 DIV PUSH20 0xFFFFFFFFFFFFFFFFFFFFFFFFFFFFFFFFFFFFFFFF AND PUSH20 0xFFFFFFFFFFFFFFFFFFFFFFFFFFFFFFFFFFFFFFFF AND CALLER PUSH20 0xFFFFFFFFFFFFFFFFFFFFFFFFFFFFFFFFFFFFFFFF AND EQ PUSH2 0xEBD JUMPI PUSH1 0x40 MLOAD PUSH32 0x8C379A000000000000000000000000000000000000000000000000000000000 DUP2 MSTORE PUSH1 0x4 ADD PUSH2 0xEB4 SWAP1 PUSH2 0x276F JUMP JUMPDEST PUSH1 0x40 MLOAD DUP1 SWAP2 SUB SWAP1 REVERT JUMPDEST PUSH2 0xEC6 DUP3 PUSH2 0x142B JUMP JUMPDEST ISZERO PUSH2 0xF06 JUMPI PUSH1 0x40 MLOAD PUSH32 0x8C379A000000000000000000000000000000000000000000000000000000000 DUP2 MSTORE PUSH1 0x4 ADD PUSH2 0xEFD SWAP1 PUSH2 0x27D7 JUMP JUMPDEST PUSH1 0x40 MLOAD DUP1 SWAP2 SUB SWAP1 REVERT JUMPDEST PUSH2 0xF0E PUSH2 0x189D JUMP JUMPDEST DUP3 DUP2 PUSH0 ADD DUP2 SWAP1 MSTORE POP TIMESTAMP DUP3 PUSH2 0xF22 SWAP2 SWAP1 PUSH2 0x26F2 JUMP JUMPDEST DUP2 PUSH1 0x20 ADD DUP2 DUP2 MSTORE POP POP PUSH1 0x2 DUP2 SWAP1 DUP1 PUSH1 0x1 DUP2 SLOAD ADD DUP1 DUP3 SSTORE DUP1 SWAP2 POP POP PUSH1 0x1 SWAP1 SUB SWAP1 PUSH0 MSTORE PUSH1 0x20 PUSH0 KECCAK256 SWAP1 PUSH1 0x3 MUL ADD PUSH0 SWAP1 SWAP2 SWAP1 SWAP2 SWAP1 SWAP2 POP PUSH0 DUP3 ADD MLOAD DUP2 PUSH0 ADD SWAP1 DUP2 PUSH2 0xF67 SWAP2 SWAP1 PUSH2 0x2520 JUMP JUMPDEST POP PUSH1 0x20 DUP3 ADD MLOAD DUP2 PUSH1 0x1 ADD SSTORE PUSH1 0x40 DUP3 ADD MLOAD DUP2 PUSH1 0x2 ADD SWAP1 DUP1 MLOAD SWAP1 PUSH1 0x20 ADD SWAP1 PUSH2 0xF8E SWAP3 SWAP2 SWAP1 PUSH2 0x18BD JUMP JUMPDEST POP POP POP POP POP POP JUMP JUMPDEST PUSH0 DUP1 SLOAD SWAP1 PUSH2 0x100 EXP SWAP1 DIV PUSH20 0xFFFFFFFFFFFFFFFFFFFFFFFFFFFFFFFFFFFFFFFF AND PUSH20 0xFFFFFFFFFFFFFFFFFFFFFFFFFFFFFFFFFFFFFFFF AND CALLER PUSH20 0xFFFFFFFFFFFFFFFFFFFFFFFFFFFFFFFFFFFFFFFF AND EQ PUSH2 0x1023 JUMPI PUSH1 0x40 MLOAD PUSH32 0x8C379A000000000000000000000000000000000000000000000000000000000 DUP2 MSTORE PUSH1 0x4 ADD PUSH2 0x101A SWAP1 PUSH2 0x283F JUMP JUMPDEST PUSH1 0x40 MLOAD DUP1 SWAP2 SUB SWAP1 REVERT JUMPDEST PUSH2 0x102C DUP2 PUSH2 0x142B JUMP JUMPDEST PUSH2 0x106B JUMPI PUSH1 0x40 MLOAD PUSH32 0x8C379A000000000000000000000000000000000000000000000000000000000 DUP2 MSTORE PUSH1 0x4 ADD PUSH2 0x1062 SWAP1 PUSH2 0x28A7 JUMP JUMPDEST PUSH1 0x40 MLOAD DUP1 SWAP2 SUB SWAP1 REVERT JUMPDEST PUSH2 0x1074 DUP3 PUSH2 0x1583 JUMP JUMPDEST PUSH2 0x10B3 JUMPI PUSH1 0x40 MLOAD PUSH32 0x8C379A000000000000000000000000000000000000000000000000000000000 DUP2 MSTORE PUSH1 0x4 ADD PUSH2 0x10AA SWAP1 PUSH2 0x290F JUMP JUMPDEST PUSH1 0x40 MLOAD DUP1 SWAP2 SUB SWAP1 REVERT JUMPDEST PUSH0 PUSH1 0x1 PUSH1 0x4 DUP1 SLOAD SWAP1 POP PUSH2 0x10C6 SWAP2 SWAP1 PUSH2 0x26F2 JUMP JUMPDEST SWAP1 POP PUSH0 PUSH2 0x10D2 DUP5 PUSH2 0x1739 JUMP JUMPDEST SWAP1 POP PUSH0 DUP2 SUB PUSH2 0x1144 JUMPI PUSH2 0x10E3 PUSH2 0x1884 JUMP JUMPDEST DUP5 DUP2 PUSH1 0x20 ADD DUP2 SWAP1 MSTORE POP DUP3 DUP2 PUSH0 ADD DUP2 DUP2 MSTORE POP POP PUSH1 0x4 DUP2 SWAP1 DUP1 PUSH1 0x1 DUP2 SLOAD ADD DUP1 DUP3 SSTORE DUP1 SWAP2 POP POP PUSH1 0x1 SWAP1 SUB SWAP1 PUSH0 MSTORE PUSH1 0x20 PUSH0 KECCAK256 SWAP1 PUSH1 0x2 MUL ADD PUSH0 SWAP1 SWAP2 SWAP1 SWAP2 SWAP1 SWAP2 POP PUSH0 DUP3 ADD MLOAD DUP2 PUSH0 ADD SSTORE PUSH1 0x20 DUP3 ADD MLOAD DUP2 PUSH1 0x1 ADD SWAP1 DUP2 PUSH2 0x113B SWAP2 SWAP1 PUSH2 0x2520 JUMP JUMPDEST POP POP POP POP PUSH2 0x1148 JUMP JUMPDEST DUP1 SWAP2 POP JUMPDEST PUSH1 0x2 PUSH1 0x1 SLOAD DUP2 SLOAD DUP2 LT PUSH2 0x115E JUMPI PUSH2 0x115D PUSH2 0x2291 JUMP JUMPDEST JUMPDEST SWAP1 PUSH0 MSTORE PUSH1 0x20 PUSH0 KECCAK256 SWAP1 PUSH1 0x3 MUL ADD PUSH1 0x2 ADD DUP3 SWAP1 DUP1 PUSH1 0x1 DUP2 SLOAD ADD DUP1 DUP3 SSTORE DUP1 SWAP2 POP POP PUSH1 0x1 SWAP1 SUB SWAP1 PUSH0 MSTORE PUSH1 0x20 PUSH0 KECCAK256 ADD PUSH0 SWAP1 SWAP2 SWAP1 SWAP2 SWAP1 SWAP2 POP SSTORE POP POP POP POP JUMP JUMPDEST PUSH1 0x4 DUP2 DUP2 SLOAD DUP2 LT PUSH2 0x11A6 JUMPI PUSH0 DUP1 REVERT JUMPDEST SWAP1 PUSH0 MSTORE PUSH1 0x20 PUSH0 KECCAK256 SWAP1 PUSH1 0x2 MUL ADD PUSH0 SWAP2 POP SWAP1 POP DUP1 PUSH0 ADD SLOAD SWAP1 DUP1 PUSH1 0x1 ADD DUP1 SLOAD PUSH2 0x11CB SWAP1 PUSH2 0x2353 JUMP JUMPDEST DUP1 PUSH1 0x1F ADD PUSH1 0x20 DUP1 SWAP2 DIV MUL PUSH1 0x20 ADD PUSH1 0x40 MLOAD SWAP1 DUP2 ADD PUSH1 0x40 MSTORE DUP1 SWAP3 SWAP2 SWAP1 DUP2 DUP2 MSTORE PUSH1 0x20 ADD DUP3 DUP1 SLOAD PUSH2 0x11F7 SWAP1 PUSH2 0x2353 JUMP JUMPDEST DUP1 ISZERO PUSH2 0x1242 JUMPI DUP1 PUSH1 0x1F LT PUSH2 0x1219 JUMPI PUSH2 0x100 DUP1 DUP4 SLOAD DIV MUL DUP4 MSTORE SWAP2 PUSH1 0x20 ADD SWAP2 PUSH2 0x1242 JUMP JUMPDEST DUP3 ADD SWAP2 SWAP1 PUSH0 MSTORE PUSH1 0x20 PUSH0 KECCAK256 SWAP1 JUMPDEST DUP2 SLOAD DUP2 MSTORE SWAP1 PUSH1 0x1 ADD SWAP1 PUSH1 0x20 ADD DUP1 DUP4 GT PUSH2 0x1225 JUMPI DUP3 SWAP1 SUB PUSH1 0x1F AND DUP3 ADD SWAP2 JUMPDEST POP POP POP POP POP SWAP1 POP DUP3 JUMP JUMPDEST PUSH1 0x3 DUP2 DUP2 SLOAD DUP2 LT PUSH2 0x125B JUMPI PUSH0 DUP1 REVERT JUMPDEST SWAP1 PUSH0 MSTORE PUSH1 0x20 PUSH0 KECCAK256 SWAP1 PUSH1 0x3 MUL ADD PUSH0 SWAP2 POP SWAP1 POP DUP1 PUSH0 ADD SLOAD SWAP1 DUP1 PUSH1 0x1 ADD DUP1 SLOAD PUSH2 0x1280 SWAP1 PUSH2 0x2353 JUMP JUMPDEST DUP1 PUSH1 0x1F ADD PUSH1 0x20 DUP1 SWAP2 DIV MUL PUSH1 0x20 ADD PUSH1 0x40 MLOAD SWAP1 DUP2 ADD PUSH1 0x40 MSTORE DUP1 SWAP3 SWAP2 SWAP1 DUP2 DUP2 MSTORE PUSH1 0x20 ADD DUP3 DUP1 SLOAD PUSH2 0x12AC SWAP1 PUSH2 0x2353 JUMP JUMPDEST DUP1 ISZERO PUSH2 0x12F7 JUMPI DUP1 PUSH1 0x1F LT PUSH2 0x12CE JUMPI PUSH2 0x100 DUP1 DUP4 SLOAD DIV MUL DUP4 MSTORE SWAP2 PUSH1 0x20 ADD SWAP2 PUSH2 0x12F7 JUMP JUMPDEST DUP3 ADD SWAP2 SWAP1 PUSH0 MSTORE PUSH1 0x20 PUSH0 KECCAK256 SWAP1 JUMPDEST DUP2 SLOAD DUP2 MSTORE SWAP1 PUSH1 0x1 ADD SWAP1 PUSH1 0x20 ADD DUP1 DUP4 GT PUSH2 0x12DA JUMPI DUP3 SWAP1 SUB PUSH1 0x1F AND DUP3 ADD SWAP2 JUMPDEST POP POP POP POP POP SWAP1 DUP1 PUSH1 0x2 ADD SLOAD SWAP1 POP DUP4 JUMP JUMPDEST DUP1 PUSH0 DUP1 PUSH2 0x100 EXP DUP2 SLOAD DUP2 PUSH20 0xFFFFFFFFFFFFFFFFFFFFFFFFFFFFFFFFFFFFFFFF MUL NOT AND SWAP1 DUP4 PUSH20 0xFFFFFFFFFFFFFFFFFFFFFFFFFFFFFFFFFFFFFFFF AND MUL OR SWAP1 SSTORE POP POP JUMP JUMPDEST PUSH1 0x1 SLOAD DUP2 JUMP JUMPDEST PUSH0 DUP1 PUSH0 SWAP1 SLOAD SWAP1 PUSH2 0x100 EXP SWAP1 DIV PUSH20 0xFFFFFFFFFFFFFFFFFFFFFFFFFFFFFFFFFFFFFFFF AND SWAP1 POP SWAP1 JUMP JUMPDEST PUSH1 0x2 DUP2 DUP2 SLOAD DUP2 LT PUSH2 0x1385 JUMPI PUSH0 DUP1 REVERT JUMPDEST SWAP1 PUSH0 MSTORE PUSH1 0x20 PUSH0 KECCAK256 SWAP1 PUSH1 0x3 MUL ADD PUSH0 SWAP2 POP SWAP1 POP DUP1 PUSH0 ADD DUP1 SLOAD PUSH2 0x13A4 SWAP1 PUSH2 0x2353 JUMP JUMPDEST DUP1 PUSH1 0x1F ADD PUSH1 0x20 DUP1 SWAP2 DIV MUL PUSH1 0x20 ADD PUSH1 0x40 MLOAD SWAP1 DUP2 ADD PUSH1 0x40 MSTORE DUP1 SWAP3 SWAP2 SWAP1 DUP2 DUP2 MSTORE PUSH1 0x20 ADD DUP3 DUP1 SLOAD PUSH2 0x13D0 SWAP1 PUSH2 0x2353 JUMP JUMPDEST DUP1 ISZERO PUSH2 0x141B JUMPI DUP1 PUSH1 0x1F LT PUSH2 0x13F2 JUMPI PUSH2 0x100 DUP1 DUP4 SLOAD DIV MUL DUP4 MSTORE SWAP2 PUSH1 0x20 ADD SWAP2 PUSH2 0x141B JUMP JUMPDEST DUP3 ADD SWAP2 SWAP1 PUSH0 MSTORE PUSH1 0x20 PUSH0 KECCAK256 SWAP1 JUMPDEST DUP2 SLOAD DUP2 MSTORE SWAP1 PUSH1 0x1 ADD SWAP1 PUSH1 0x20 ADD DUP1 DUP4 GT PUSH2 0x13FE JUMPI DUP3 SWAP1 SUB PUSH1 0x1F AND DUP3 ADD SWAP2 JUMPDEST POP POP POP POP POP SWAP1 DUP1 PUSH1 0x1 ADD SLOAD SWAP1 POP DUP3 JUMP JUMPDEST PUSH0 DUP1 PUSH0 SWAP1 POP JUMPDEST PUSH1 0x2 DUP1 SLOAD SWAP1 POP DUP2 LT ISZERO PUSH2 0x1513 JUMPI PUSH2 0x14F0 PUSH1 0x2 DUP3 DUP2 SLOAD DUP2 LT PUSH2 0x1455 JUMPI PUSH2 0x1454 PUSH2 0x2291 JUMP JUMPDEST JUMPDEST SWAP1 PUSH0 MSTORE PUSH1 0x20 PUSH0 KECCAK256 SWAP1 PUSH1 0x3 MUL ADD PUSH0 ADD DUP1 SLOAD PUSH2 0x146E SWAP1 PUSH2 0x2353 JUMP JUMPDEST DUP1 PUSH1 0x1F ADD PUSH1 0x20 DUP1 SWAP2 DIV MUL PUSH1 0x20 ADD PUSH1 0x40 MLOAD SWAP1 DUP2 ADD PUSH1 0x40 MSTORE DUP1 SWAP3 SWAP2 SWAP1 DUP2 DUP2 MSTORE PUSH1 0x20 ADD DUP3 DUP1 SLOAD PUSH2 0x149A SWAP1 PUSH2 0x2353 JUMP JUMPDEST DUP1 ISZERO PUSH2 0x14E5 JUMPI DUP1 PUSH1 0x1F LT PUSH2 0x14BC JUMPI PUSH2 0x100 DUP1 DUP4 SLOAD DIV MUL DUP4 MSTORE SWAP2 PUSH1 0x20 ADD SWAP2 PUSH2 0x14E5 JUMP JUMPDEST DUP3 ADD SWAP2 SWAP1 PUSH0 MSTORE PUSH1 0x20 PUSH0 KECCAK256 SWAP1 JUMPDEST DUP2 SLOAD DUP2 MSTORE SWAP1 PUSH1 0x1 ADD SWAP1 PUSH1 0x20 ADD DUP1 DUP4 GT PUSH2 0x14C8 JUMPI DUP3 SWAP1 SUB PUSH1 0x1F AND DUP3 ADD SWAP2 JUMPDEST POP POP POP POP POP DUP5 PUSH2 0x1519 JUMP JUMPDEST ISZERO PUSH2 0x1505 JUMPI DUP1 PUSH1 0x1 DUP2 SWAP1 SSTORE POP PUSH1 0x1 SWAP2 POP PUSH2 0x1506 JUMP JUMPDEST JUMPDEST DUP1 DUP1 PUSH1 0x1 ADD SWAP2 POP POP PUSH2 0x1431 JUMP JUMPDEST POP SWAP2 SWAP1 POP JUMP JUMPDEST PUSH0 DUP2 MLOAD DUP4 MLOAD EQ PUSH2 0x152B JUMPI PUSH0 SWAP1 POP PUSH2 0x157D JUMP JUMPDEST DUP2 PUSH1 0x40 MLOAD PUSH1 0x20 ADD PUSH2 0x153C SWAP2 SWAP1 PUSH2 0x2967 JUMP JUMPDEST PUSH1 0x40 MLOAD PUSH1 0x20 DUP2 DUP4 SUB SUB DUP2 MSTORE SWAP1 PUSH1 0x40 MSTORE DUP1 MLOAD SWAP1 PUSH1 0x20 ADD KECCAK256 DUP4 PUSH1 0x40 MLOAD PUSH1 0x20 ADD PUSH2 0x1563 SWAP2 SWAP1 PUSH2 0x2967 JUMP JUMPDEST PUSH1 0x40 MLOAD PUSH1 0x20 DUP2 DUP4 SUB SUB DUP2 MSTORE SWAP1 PUSH1 0x40 MSTORE DUP1 MLOAD SWAP1 PUSH1 0x20 ADD KECCAK256 EQ SWAP1 POP JUMPDEST SWAP3 SWAP2 POP POP JUMP JUMPDEST PUSH0 DUP1 PUSH0 SWAP1 POP PUSH0 JUMPDEST PUSH1 0x4 DUP1 SLOAD SWAP1 POP DUP2 LT ISZERO PUSH2 0x168C JUMPI PUSH0 PUSH1 0x4 DUP3 DUP2 SLOAD DUP2 LT PUSH2 0x15AC JUMPI PUSH2 0x15AB PUSH2 0x2291 JUMP JUMPDEST JUMPDEST SWAP1 PUSH0 MSTORE PUSH1 0x20 PUSH0 KECCAK256 SWAP1 PUSH1 0x2 MUL ADD PUSH1 0x40 MLOAD DUP1 PUSH1 0x40 ADD PUSH1 0x40 MSTORE SWAP1 DUP2 PUSH0 DUP3 ADD SLOAD DUP2 MSTORE PUSH1 0x20 ADD PUSH1 0x1 DUP3 ADD DUP1 SLOAD PUSH2 0x15DC SWAP1 PUSH2 0x2353 JUMP JUMPDEST DUP1 PUSH1 0x1F ADD PUSH1 0x20 DUP1 SWAP2 DIV MUL PUSH1 0x20 ADD PUSH1 0x40 MLOAD SWAP1 DUP2 ADD PUSH1 0x40 MSTORE DUP1 SWAP3 SWAP2 SWAP1 DUP2 DUP2 MSTORE PUSH1 0x20 ADD DUP3 DUP1 SLOAD PUSH2 0x1608 SWAP1 PUSH2 0x2353 JUMP JUMPDEST DUP1 ISZERO PUSH2 0x1653 JUMPI DUP1 PUSH1 0x1F LT PUSH2 0x162A JUMPI PUSH2 0x100 DUP1 DUP4 SLOAD DIV MUL DUP4 MSTORE SWAP2 PUSH1 0x20 ADD SWAP2 PUSH2 0x1653 JUMP JUMPDEST DUP3 ADD SWAP2 SWAP1 PUSH0 MSTORE PUSH1 0x20 PUSH0 KECCAK256 SWAP1 JUMPDEST DUP2 SLOAD DUP2 MSTORE SWAP1 PUSH1 0x1 ADD SWAP1 PUSH1 0x20 ADD DUP1 DUP4 GT PUSH2 0x1636 JUMPI DUP3 SWAP1 SUB PUSH1 0x1F AND DUP3 ADD SWAP2 JUMPDEST POP POP POP POP POP DUP2 MSTORE POP POP SWAP1 POP PUSH2 0x166C DUP2 PUSH1 0x20 ADD MLOAD DUP7 PUSH2 0x1519 JUMP JUMPDEST ISZERO PUSH2 0x167D JUMPI DUP1 PUSH0 ADD MLOAD SWAP3 POP POP PUSH2 0x167F JUMP JUMPDEST POP JUMPDEST DUP1 DUP1 PUSH1 0x1 ADD SWAP2 POP POP PUSH2 0x158A JUMP JUMPDEST POP PUSH0 DUP2 SUB PUSH2 0x169D JUMPI PUSH0 SWAP2 POP POP PUSH2 0x1734 JUMP JUMPDEST PUSH0 DUP1 JUMPDEST PUSH1 0x2 PUSH1 0x1 SLOAD DUP2 SLOAD DUP2 LT PUSH2 0x16B6 JUMPI PUSH2 0x16B5 PUSH2 0x2291 JUMP JUMPDEST JUMPDEST SWAP1 PUSH0 MSTORE PUSH1 0x20 PUSH0 KECCAK256 SWAP1 PUSH1 0x3 MUL ADD PUSH1 0x2 ADD DUP1 SLOAD SWAP1 POP DUP2 LT ISZERO PUSH2 0x172D JUMPI PUSH1 0x2 PUSH1 0x1 SLOAD DUP2 SLOAD DUP2 LT PUSH2 0x16E6 JUMPI PUSH2 0x16E5 PUSH2 0x2291 JUMP JUMPDEST JUMPDEST SWAP1 PUSH0 MSTORE PUSH1 0x20 PUSH0 KECCAK256 SWAP1 PUSH1 0x3 MUL ADD PUSH1 0x2 ADD DUP2 DUP2 SLOAD DUP2 LT PUSH2 0x1707 JUMPI PUSH2 0x1706 PUSH2 0x2291 JUMP JUMPDEST JUMPDEST SWAP1 PUSH0 MSTORE PUSH1 0x20 PUSH0 KECCAK256 ADD SLOAD DUP4 SUB PUSH2 0x171F JUMPI PUSH1 0x1 SWAP2 POP PUSH2 0x1720 JUMP JUMPDEST JUMPDEST DUP1 DUP1 PUSH1 0x1 ADD SWAP2 POP POP PUSH2 0x16A0 JUMP JUMPDEST POP DUP1 SWAP3 POP POP POP JUMPDEST SWAP2 SWAP1 POP JUMP JUMPDEST PUSH0 DUP1 PUSH0 SWAP1 POP JUMPDEST PUSH1 0x4 DUP1 SLOAD SWAP1 POP DUP2 LT ISZERO PUSH2 0x183C JUMPI PUSH2 0x17FF PUSH1 0x4 DUP3 DUP2 SLOAD DUP2 LT PUSH2 0x1763 JUMPI PUSH2 0x1762 PUSH2 0x2291 JUMP JUMPDEST JUMPDEST SWAP1 PUSH0 MSTORE PUSH1 0x20 PUSH0 KECCAK256 SWAP1 PUSH1 0x2 MUL ADD PUSH1 0x1 ADD DUP1 SLOAD PUSH2 0x177D SWAP1 PUSH2 0x2353 JUMP JUMPDEST DUP1 PUSH1 0x1F ADD PUSH1 0x20 DUP1 SWAP2 DIV MUL PUSH1 0x20 ADD PUSH1 0x40 MLOAD SWAP1 DUP2 ADD PUSH1 0x40 MSTORE DUP1 SWAP3 SWAP2 SWAP1 DUP2 DUP2 MSTORE PUSH1 0x20 ADD DUP3 DUP1 SLOAD PUSH2 0x17A9 SWAP1 PUSH2 0x2353 JUMP JUMPDEST DUP1 ISZERO PUSH2 0x17F4 JUMPI DUP1 PUSH1 0x1F LT PUSH2 0x17CB JUMPI PUSH2 0x100 DUP1 DUP4 SLOAD DIV MUL DUP4 MSTORE SWAP2 PUSH1 0x20 ADD SWAP2 PUSH2 0x17F4 JUMP JUMPDEST DUP3 ADD SWAP2 SWAP1 PUSH0 MSTORE PUSH1 0x20 PUSH0 KECCAK256 SWAP1 JUMPDEST DUP2 SLOAD DUP2 MSTORE SWAP1 PUSH1 0x1 ADD SWAP1 PUSH1 0x20 ADD DUP1 DUP4 GT PUSH2 0x17D7 JUMPI DUP3 SWAP1 SUB PUSH1 0x1F AND DUP3 ADD SWAP2 JUMPDEST POP POP POP POP POP DUP5 PUSH2 0x1519 JUMP JUMPDEST ISZERO PUSH2 0x182F JUMPI PUSH1 0x4 DUP2 DUP2 SLOAD DUP2 LT PUSH2 0x1818 JUMPI PUSH2 0x1817 PUSH2 0x2291 JUMP JUMPDEST JUMPDEST SWAP1 PUSH0 MSTORE PUSH1 0x20 PUSH0 KECCAK256 SWAP1 PUSH1 0x2 MUL ADD PUSH0 ADD SLOAD SWAP2 POP POP PUSH2 0x1841 JUMP JUMPDEST DUP1 DUP1 PUSH1 0x1 ADD SWAP2 POP POP PUSH2 0x173F JUMP JUMPDEST POP PUSH0 SWAP1 POP JUMPDEST SWAP2 SWAP1 POP JUMP JUMPDEST PUSH1 0x40 MLOAD DUP1 PUSH1 0x60 ADD PUSH1 0x40 MSTORE DUP1 PUSH0 DUP2 MSTORE PUSH1 0x20 ADD PUSH1 0x60 DUP2 MSTORE PUSH1 0x20 ADD PUSH0 DUP2 MSTORE POP SWAP1 JUMP JUMPDEST PUSH1 0x40 MLOAD DUP1 PUSH1 0x60 ADD PUSH1 0x40 MSTORE DUP1 PUSH0 DUP2 MSTORE PUSH1 0x20 ADD PUSH1 0x60 DUP2 MSTORE PUSH1 0x20 ADD PUSH0 DUP2 MSTORE POP SWAP1 JUMP JUMPDEST PUSH1 0x40 MLOAD DUP1 PUSH1 0x40 ADD PUSH1 0x40 MSTORE DUP1 PUSH0 DUP2 MSTORE PUSH1 0x20 ADD PUSH1 0x60 DUP2 MSTORE POP SWAP1 JUMP JUMPDEST PUSH1 0x40 MLOAD DUP1 PUSH1 0x60 ADD PUSH1 0x40 MSTORE DUP1 PUSH1 0x60 DUP2 MSTORE PUSH1 0x20 ADD PUSH0 DUP2 MSTORE PUSH1 0x20 ADD PUSH1 0x60 DUP2 MSTORE POP SWAP1 JUMP JUMPDEST DUP3 DUP1 SLOAD DUP3 DUP3 SSTORE SWAP1 PUSH0 MSTORE PUSH1 0x20 PUSH0 KECCAK256 SWAP1 DUP2 ADD SWAP3 DUP3 ISZERO PUSH2 0x18F7 JUMPI SWAP2 PUSH1 0x20 MUL DUP3 ADD JUMPDEST DUP3 DUP2 GT ISZERO PUSH2 0x18F6 JUMPI DUP3 MLOAD DUP3 SSTORE SWAP2 PUSH1 0x20 ADD SWAP2 SWAP1 PUSH1 0x1 ADD SWAP1 PUSH2 0x18DB JUMP JUMPDEST JUMPDEST POP SWAP1 POP PUSH2 0x1904 SWAP2 SWAP1 PUSH2 0x1908 JUMP JUMPDEST POP SWAP1 JUMP JUMPDEST JUMPDEST DUP1 DUP3 GT ISZERO PUSH2 0x191F JUMPI PUSH0 DUP2 PUSH0 SWAP1 SSTORE POP PUSH1 0x1 ADD PUSH2 0x1909 JUMP JUMPDEST POP SWAP1 JUMP JUMPDEST PUSH0 PUSH1 0x40 MLOAD SWAP1 POP SWAP1 JUMP JUMPDEST PUSH0 DUP1 REVERT JUMPDEST PUSH0 DUP1 REVERT JUMPDEST PUSH0 DUP2 SWAP1 POP SWAP2 SWAP1 POP JUMP JUMPDEST PUSH2 0x1946 DUP2 PUSH2 0x1934 JUMP JUMPDEST DUP2 EQ PUSH2 0x1950 JUMPI PUSH0 DUP1 REVERT JUMPDEST POP JUMP JUMPDEST PUSH0 DUP2 CALLDATALOAD SWAP1 POP PUSH2 0x1961 DUP2 PUSH2 0x193D JUMP JUMPDEST SWAP3 SWAP2 POP POP JUMP JUMPDEST PUSH0 PUSH1 0x20 DUP3 DUP5 SUB SLT ISZERO PUSH2 0x197C JUMPI PUSH2 0x197B PUSH2 0x192C JUMP JUMPDEST JUMPDEST PUSH0 PUSH2 0x1989 DUP5 DUP3 DUP6 ADD PUSH2 0x1953 JUMP JUMPDEST SWAP2 POP POP SWAP3 SWAP2 POP POP JUMP JUMPDEST PUSH0 DUP2 MLOAD SWAP1 POP SWAP2 SWAP1 POP JUMP JUMPDEST PUSH0 DUP3 DUP3 MSTORE PUSH1 0x20 DUP3 ADD SWAP1 POP SWAP3 SWAP2 POP POP JUMP JUMPDEST PUSH0 DUP2 SWAP1 POP PUSH1 0x20 DUP3 ADD SWAP1 POP SWAP2 SWAP1 POP JUMP JUMPDEST PUSH0 DUP2 MLOAD SWAP1 POP SWAP2 SWAP1 POP JUMP JUMPDEST PUSH0 DUP3 DUP3 MSTORE PUSH1 0x20 DUP3 ADD SWAP1 POP SWAP3 SWAP2 POP POP JUMP JUMPDEST PUSH0 JUMPDEST DUP4 DUP2 LT ISZERO PUSH2 0x19F2 JUMPI DUP1 DUP3 ADD MLOAD DUP2 DUP5 ADD MSTORE PUSH1 0x20 DUP2 ADD SWAP1 POP PUSH2 0x19D7 JUMP JUMPDEST PUSH0 DUP5 DUP5 ADD MSTORE POP POP POP POP JUMP JUMPDEST PUSH0 PUSH1 0x1F NOT PUSH1 0x1F DUP4 ADD AND SWAP1 POP SWAP2 SWAP1 POP JUMP JUMPDEST PUSH0 PUSH2 0x1A17 DUP3 PUSH2 0x19BB JUMP JUMPDEST PUSH2 0x1A21 DUP2 DUP6 PUSH2 0x19C5 JUMP JUMPDEST SWAP4 POP PUSH2 0x1A31 DUP2 DUP6 PUSH1 0x20 DUP7 ADD PUSH2 0x19D5 JUMP JUMPDEST PUSH2 0x1A3A DUP2 PUSH2 0x19FD JUMP JUMPDEST DUP5 ADD SWAP2 POP POP SWAP3 SWAP2 POP POP JUMP JUMPDEST PUSH2 0x1A4E DUP2 PUSH2 0x1934 JUMP JUMPDEST DUP3 MSTORE POP POP JUMP JUMPDEST PUSH0 DUP2 MLOAD SWAP1 POP SWAP2 SWAP1 POP JUMP JUMPDEST PUSH0 DUP3 DUP3 MSTORE PUSH1 0x20 DUP3 ADD SWAP1 POP SWAP3 SWAP2 POP POP JUMP JUMPDEST PUSH0 DUP2 SWAP1 POP PUSH1 0x20 DUP3 ADD SWAP1 POP SWAP2 SWAP1 POP JUMP JUMPDEST PUSH0 PUSH2 0x1A88 DUP4 DUP4 PUSH2 0x1A45 JUMP JUMPDEST PUSH1 0x20 DUP4 ADD SWAP1 POP SWAP3 SWAP2 POP POP JUMP JUMPDEST PUSH0 PUSH1 0x20 DUP3 ADD SWAP1 POP SWAP2 SWAP1 POP JUMP JUMPDEST PUSH0 PUSH2 0x1AAA DUP3 PUSH2 0x1A54 JUMP JUMPDEST PUSH2 0x1AB4 DUP2 DUP6 PUSH2 0x1A5E JUMP JUMPDEST SWAP4 POP PUSH2 0x1ABF DUP4 PUSH2 0x1A6E JUMP JUMPDEST DUP1 PUSH0 JUMPDEST DUP4 DUP2 LT ISZERO PUSH2 0x1AEF JUMPI DUP2 MLOAD PUSH2 0x1AD6 DUP9 DUP3 PUSH2 0x1A7D JUMP JUMPDEST SWAP8 POP PUSH2 0x1AE1 DUP4 PUSH2 0x1A94 JUMP JUMPDEST SWAP3 POP POP PUSH1 0x1 DUP2 ADD SWAP1 POP PUSH2 0x1AC2 JUMP JUMPDEST POP DUP6 SWAP4 POP POP POP POP SWAP3 SWAP2 POP POP JUMP JUMPDEST PUSH0 PUSH1 0x60 DUP4 ADD PUSH0 DUP4 ADD MLOAD DUP5 DUP3 SUB PUSH0 DUP7 ADD MSTORE PUSH2 0x1B16 DUP3 DUP3 PUSH2 0x1A0D JUMP JUMPDEST SWAP2 POP POP PUSH1 0x20 DUP4 ADD MLOAD PUSH2 0x1B2B PUSH1 0x20 DUP7 ADD DUP3 PUSH2 0x1A45 JUMP JUMPDEST POP PUSH1 0x40 DUP4 ADD MLOAD DUP5 DUP3 SUB PUSH1 0x40 DUP7 ADD MSTORE PUSH2 0x1B43 DUP3 DUP3 PUSH2 0x1AA0 JUMP JUMPDEST SWAP2 POP POP DUP1 SWAP2 POP POP SWAP3 SWAP2 POP POP JUMP JUMPDEST PUSH0 PUSH2 0x1B5B DUP4 DUP4 PUSH2 0x1AFC JUMP JUMPDEST SWAP1 POP SWAP3 SWAP2 POP POP JUMP JUMPDEST PUSH0 PUSH1 0x20 DUP3 ADD SWAP1 POP SWAP2 SWAP1 POP JUMP JUMPDEST PUSH0 PUSH2 0x1B79 DUP3 PUSH2 0x1992 JUMP JUMPDEST PUSH2 0x1B83 DUP2 DUP6 PUSH2 0x199C JUMP JUMPDEST SWAP4 POP DUP4 PUSH1 0x20 DUP3 MUL DUP6 ADD PUSH2 0x1B95 DUP6 PUSH2 0x19AC JUMP JUMPDEST DUP1 PUSH0 JUMPDEST DUP6 DUP2 LT ISZERO PUSH2 0x1BD0 JUMPI DUP5 DUP5 SUB DUP10 MSTORE DUP2 MLOAD PUSH2 0x1BB1 DUP6 DUP3 PUSH2 0x1B50 JUMP JUMPDEST SWAP5 POP PUSH2 0x1BBC DUP4 PUSH2 0x1B63 JUMP JUMPDEST SWAP3 POP PUSH1 0x20 DUP11 ADD SWAP10 POP POP PUSH1 0x1 DUP2 ADD SWAP1 POP PUSH2 0x1B98 JUMP JUMPDEST POP DUP3 SWAP8 POP DUP8 SWAP6 POP POP POP POP POP POP SWAP3 SWAP2 POP POP JUMP JUMPDEST PUSH0 PUSH1 0x20 DUP3 ADD SWAP1 POP DUP2 DUP2 SUB PUSH0 DUP4 ADD MSTORE PUSH2 0x1BFA DUP2 DUP5 PUSH2 0x1B6F JUMP JUMPDEST SWAP1 POP SWAP3 SWAP2 POP POP JUMP JUMPDEST PUSH0 DUP2 MLOAD SWAP1 POP SWAP2 SWAP1 POP JUMP JUMPDEST PUSH0 DUP3 DUP3 MSTORE PUSH1 0x20 DUP3 ADD SWAP1 POP SWAP3 SWAP2 POP POP JUMP JUMPDEST PUSH0 DUP2 SWAP1 POP PUSH1 0x20 DUP3 ADD SWAP1 POP SWAP2 SWAP1 POP JUMP JUMPDEST PUSH0 PUSH1 0x40 DUP4 ADD PUSH0 DUP4 ADD MLOAD PUSH2 0x1C40 PUSH0 DUP7 ADD DUP3 PUSH2 0x1A45 JUMP JUMPDEST POP PUSH1 0x20 DUP4 ADD MLOAD DUP5 DUP3 SUB PUSH1 0x20 DUP7 ADD MSTORE PUSH2 0x1C58 DUP3 DUP3 PUSH2 0x1A0D JUMP JUMPDEST SWAP2 POP POP DUP1 SWAP2 POP POP SWAP3 SWAP2 POP POP JUMP JUMPDEST PUSH0 PUSH2 0x1C70 DUP4 DUP4 PUSH2 0x1C2B JUMP JUMPDEST SWAP1 POP SWAP3 SWAP2 POP POP JUMP JUMPDEST PUSH0 PUSH1 0x20 DUP3 ADD SWAP1 POP SWAP2 SWAP1 POP JUMP JUMPDEST PUSH0 PUSH2 0x1C8E DUP3 PUSH2 0x1C02 JUMP JUMPDEST PUSH2 0x1C98 DUP2 DUP6 PUSH2 0x1C0C JUMP JUMPDEST SWAP4 POP DUP4 PUSH1 0x20 DUP3 MUL DUP6 ADD PUSH2 0x1CAA DUP6 PUSH2 0x1C1C JUMP JUMPDEST DUP1 PUSH0 JUMPDEST DUP6 DUP2 LT ISZERO PUSH2 0x1CE5 JUMPI DUP5 DUP5 SUB DUP10 MSTORE DUP2 MLOAD PUSH2 0x1CC6 DUP6 DUP3 PUSH2 0x1C65 JUMP JUMPDEST SWAP5 POP PUSH2 0x1CD1 DUP4 PUSH2 0x1C78 JUMP JUMPDEST SWAP3 POP PUSH1 0x20 DUP11 ADD SWAP10 POP POP PUSH1 0x1 DUP2 ADD SWAP1 POP PUSH2 0x1CAD JUMP JUMPDEST POP DUP3 SWAP8 POP DUP8 SWAP6 POP POP POP POP POP POP SWAP3 SWAP2 POP POP JUMP JUMPDEST PUSH0 PUSH1 0x20 DUP3 ADD SWAP1 POP DUP2 DUP2 SUB PUSH0 DUP4 ADD MSTORE PUSH2 0x1D0F DUP2 DUP5 PUSH2 0x1C84 JUMP JUMPDEST SWAP1 POP SWAP3 SWAP2 POP POP JUMP JUMPDEST PUSH0 DUP1 REVERT JUMPDEST PUSH0 DUP1 REVERT JUMPDEST PUSH32 0x4E487B7100000000000000000000000000000000000000000000000000000000 PUSH0 MSTORE PUSH1 0x41 PUSH1 0x4 MSTORE PUSH1 0x24 PUSH0 REVERT JUMPDEST PUSH2 0x1D55 DUP3 PUSH2 0x19FD JUMP JUMPDEST DUP2 ADD DUP2 DUP2 LT PUSH8 0xFFFFFFFFFFFFFFFF DUP3 GT OR ISZERO PUSH2 0x1D74 JUMPI PUSH2 0x1D73 PUSH2 0x1D1F JUMP JUMPDEST JUMPDEST DUP1 PUSH1 0x40 MSTORE POP POP POP JUMP JUMPDEST PUSH0 PUSH2 0x1D86 PUSH2 0x1923 JUMP JUMPDEST SWAP1 POP PUSH2 0x1D92 DUP3 DUP3 PUSH2 0x1D4C JUMP JUMPDEST SWAP2 SWAP1 POP JUMP JUMPDEST PUSH0 PUSH8 0xFFFFFFFFFFFFFFFF DUP3 GT ISZERO PUSH2 0x1DB1 JUMPI PUSH2 0x1DB0 PUSH2 0x1D1F JUMP JUMPDEST JUMPDEST PUSH2 0x1DBA DUP3 PUSH2 0x19FD JUMP JUMPDEST SWAP1 POP PUSH1 0x20 DUP2 ADD SWAP1 POP SWAP2 SWAP1 POP JUMP JUMPDEST DUP3 DUP2 DUP4 CALLDATACOPY PUSH0 DUP4 DUP4 ADD MSTORE POP POP POP JUMP JUMPDEST PUSH0 PUSH2 0x1DE7 PUSH2 0x1DE2 DUP5 PUSH2 0x1D97 JUMP JUMPDEST PUSH2 0x1D7D JUMP JUMPDEST SWAP1 POP DUP3 DUP2 MSTORE PUSH1 0x20 DUP2 ADD DUP5 DUP5 DUP5 ADD GT ISZERO PUSH2 0x1E03 JUMPI PUSH2 0x1E02 PUSH2 0x1D1B JUMP JUMPDEST JUMPDEST PUSH2 0x1E0E DUP5 DUP3 DUP6 PUSH2 0x1DC7 JUMP JUMPDEST POP SWAP4 SWAP3 POP POP POP JUMP JUMPDEST PUSH0 DUP3 PUSH1 0x1F DUP4 ADD SLT PUSH2 0x1E2A JUMPI PUSH2 0x1E29 PUSH2 0x1D17 JUMP JUMPDEST JUMPDEST DUP2 CALLDATALOAD PUSH2 0x1E3A DUP5 DUP3 PUSH1 0x20 DUP7 ADD PUSH2 0x1DD5 JUMP JUMPDEST SWAP2 POP POP SWAP3 SWAP2 POP POP JUMP JUMPDEST PUSH0 PUSH1 0x20 DUP3 DUP5 SUB SLT ISZERO PUSH2 0x1E58 JUMPI PUSH2 0x1E57 PUSH2 0x192C JUMP JUMPDEST JUMPDEST PUSH0 DUP3 ADD CALLDATALOAD PUSH8 0xFFFFFFFFFFFFFFFF DUP2 GT ISZERO PUSH2 0x1E75 JUMPI PUSH2 0x1E74 PUSH2 0x1930 JUMP JUMPDEST JUMPDEST PUSH2 0x1E81 DUP5 DUP3 DUP6 ADD PUSH2 0x1E16 JUMP JUMPDEST SWAP2 POP POP SWAP3 SWAP2 POP POP JUMP JUMPDEST PUSH0 DUP2 MLOAD SWAP1 POP SWAP2 SWAP1 POP JUMP JUMPDEST PUSH0 DUP3 DUP3 MSTORE PUSH1 0x20 DUP3 ADD SWAP1 POP SWAP3 SWAP2 POP POP JUMP JUMPDEST PUSH0 DUP2 SWAP1 POP PUSH1 0x20 DUP3 ADD SWAP1 POP SWAP2 SWAP1 POP JUMP JUMPDEST PUSH0 PUSH1 0x60 DUP4 ADD PUSH0 DUP4 ADD MLOAD PUSH2 0x1EC8 PUSH0 DUP7 ADD DUP3 PUSH2 0x1A45 JUMP JUMPDEST POP PUSH1 0x20 DUP4 ADD MLOAD DUP5 DUP3 SUB PUSH1 0x20 DUP7 ADD MSTORE PUSH2 0x1EE0 DUP3 DUP3 PUSH2 0x1A0D JUMP JUMPDEST SWAP2 POP POP PUSH1 0x40 DUP4 ADD MLOAD PUSH2 0x1EF5 PUSH1 0x40 DUP7 ADD DUP3 PUSH2 0x1A45 JUMP JUMPDEST POP DUP1 SWAP2 POP POP SWAP3 SWAP2 POP POP JUMP JUMPDEST PUSH0 PUSH2 0x1F0B DUP4 DUP4 PUSH2 0x1EB3 JUMP JUMPDEST SWAP1 POP SWAP3 SWAP2 POP POP JUMP JUMPDEST PUSH0 PUSH1 0x20 DUP3 ADD SWAP1 POP SWAP2 SWAP1 POP JUMP JUMPDEST PUSH0 PUSH2 0x1F29 DUP3 PUSH2 0x1E8A JUMP JUMPDEST PUSH2 0x1F33 DUP2 DUP6 PUSH2 0x1E94 JUMP JUMPDEST SWAP4 POP DUP4 PUSH1 0x20 DUP3 MUL DUP6 ADD PUSH2 0x1F45 DUP6 PUSH2 0x1EA4 JUMP JUMPDEST DUP1 PUSH0 JUMPDEST DUP6 DUP2 LT ISZERO PUSH2 0x1F80 JUMPI DUP5 DUP5 SUB DUP10 MSTORE DUP2 MLOAD PUSH2 0x1F61 DUP6 DUP3 PUSH2 0x1F00 JUMP JUMPDEST SWAP5 POP PUSH2 0x1F6C DUP4 PUSH2 0x1F13 JUMP JUMPDEST SWAP3 POP PUSH1 0x20 DUP11 ADD SWAP10 POP POP PUSH1 0x1 DUP2 ADD SWAP1 POP PUSH2 0x1F48 JUMP JUMPDEST POP DUP3 SWAP8 POP DUP8 SWAP6 POP POP POP POP POP POP SWAP3 SWAP2 POP POP JUMP JUMPDEST PUSH0 PUSH1 0x20 DUP3 ADD SWAP1 POP DUP2 DUP2 SUB PUSH0 DUP4 ADD MSTORE PUSH2 0x1FAA DUP2 DUP5 PUSH2 0x1F1F JUMP JUMPDEST SWAP1 POP SWAP3 SWAP2 POP POP JUMP JUMPDEST PUSH0 PUSH1 0x40 DUP4 ADD PUSH0 DUP4 ADD MLOAD PUSH2 0x1FC7 PUSH0 DUP7 ADD DUP3 PUSH2 0x1A45 JUMP JUMPDEST POP PUSH1 0x20 DUP4 ADD MLOAD DUP5 DUP3 SUB PUSH1 0x20 DUP7 ADD MSTORE PUSH2 0x1FDF DUP3 DUP3 PUSH2 0x1A0D JUMP JUMPDEST SWAP2 POP POP DUP1 SWAP2 POP POP SWAP3 SWAP2 POP POP JUMP JUMPDEST PUSH0 PUSH1 0x20 DUP3 ADD SWAP1 POP DUP2 DUP2 SUB PUSH0 DUP4 ADD MSTORE PUSH2 0x2004 DUP2 DUP5 PUSH2 0x1FB2 JUMP JUMPDEST SWAP1 POP SWAP3 SWAP2 POP POP JUMP JUMPDEST PUSH0 DUP1 PUSH1 0x40 DUP4 DUP6 SUB SLT ISZERO PUSH2 0x2022 JUMPI PUSH2 0x2021 PUSH2 0x192C JUMP JUMPDEST JUMPDEST PUSH0 DUP4 ADD CALLDATALOAD PUSH8 0xFFFFFFFFFFFFFFFF DUP2 GT ISZERO PUSH2 0x203F JUMPI PUSH2 0x203E PUSH2 0x1930 JUMP JUMPDEST JUMPDEST PUSH2 0x204B DUP6 DUP3 DUP7 ADD PUSH2 0x1E16 JUMP JUMPDEST SWAP3 POP POP PUSH1 0x20 PUSH2 0x205C DUP6 DUP3 DUP7 ADD PUSH2 0x1953 JUMP JUMPDEST SWAP2 POP POP SWAP3 POP SWAP3 SWAP1 POP JUMP JUMPDEST PUSH0 DUP1 PUSH1 0x40 DUP4 DUP6 SUB SLT ISZERO PUSH2 0x207C JUMPI PUSH2 0x207B PUSH2 0x192C JUMP JUMPDEST JUMPDEST PUSH0 DUP4 ADD CALLDATALOAD PUSH8 0xFFFFFFFFFFFFFFFF DUP2 GT ISZERO PUSH2 0x2099 JUMPI PUSH2 0x2098 PUSH2 0x1930 JUMP JUMPDEST JUMPDEST PUSH2 0x20A5 DUP6 DUP3 DUP7 ADD PUSH2 0x1E16 JUMP JUMPDEST SWAP3 POP POP PUSH1 0x20 DUP4 ADD CALLDATALOAD PUSH8 0xFFFFFFFFFFFFFFFF DUP2 GT ISZERO PUSH2 0x20C6 JUMPI PUSH2 0x20C5 PUSH2 0x1930 JUMP JUMPDEST JUMPDEST PUSH2 0x20D2 DUP6 DUP3 DUP7 ADD PUSH2 0x1E16 JUMP JUMPDEST SWAP2 POP POP SWAP3 POP SWAP3 SWAP1 POP JUMP JUMPDEST PUSH2 0x20E5 DUP2 PUSH2 0x1934 JUMP JUMPDEST DUP3 MSTORE POP POP JUMP JUMPDEST PUSH0 DUP3 DUP3 MSTORE PUSH1 0x20 DUP3 ADD SWAP1 POP SWAP3 SWAP2 POP POP JUMP JUMPDEST PUSH0 PUSH2 0x2105 DUP3 PUSH2 0x19BB JUMP JUMPDEST PUSH2 0x210F DUP2 DUP6 PUSH2 0x20EB JUMP JUMPDEST SWAP4 POP PUSH2 0x211F DUP2 DUP6 PUSH1 0x20 DUP7 ADD PUSH2 0x19D5 JUMP JUMPDEST PUSH2 0x2128 DUP2 PUSH2 0x19FD JUMP JUMPDEST DUP5 ADD SWAP2 POP POP SWAP3 SWAP2 POP POP JUMP JUMPDEST PUSH0 PUSH1 0x40 DUP3 ADD SWAP1 POP PUSH2 0x2146 PUSH0 DUP4 ADD DUP6 PUSH2 0x20DC JUMP JUMPDEST DUP2 DUP2 SUB PUSH1 0x20 DUP4 ADD MSTORE PUSH2 0x2158 DUP2 DUP5 PUSH2 0x20FB JUMP JUMPDEST SWAP1 POP SWAP4 SWAP3 POP POP POP JUMP JUMPDEST PUSH0 PUSH1 0x60 DUP3 ADD SWAP1 POP PUSH2 0x2174 PUSH0 DUP4 ADD DUP7 PUSH2 0x20DC JUMP JUMPDEST DUP2 DUP2 SUB PUSH1 0x20 DUP4 ADD MSTORE PUSH2 0x2186 DUP2 DUP6 PUSH2 0x20FB JUMP JUMPDEST SWAP1 POP PUSH2 0x2195 PUSH1 0x40 DUP4 ADD DUP5 PUSH2 0x20DC JUMP JUMPDEST SWAP5 SWAP4 POP POP POP POP JUMP JUMPDEST PUSH0 PUSH20 0xFFFFFFFFFFFFFFFFFFFFFFFFFFFFFFFFFFFFFFFF DUP3 AND SWAP1 POP SWAP2 SWAP1 POP JUMP JUMPDEST PUSH0 PUSH2 0x21C6 DUP3 PUSH2 0x219D JUMP JUMPDEST SWAP1 POP SWAP2 SWAP1 POP JUMP JUMPDEST PUSH2 0x21D6 DUP2 PUSH2 0x21BC JUMP JUMPDEST DUP2 EQ PUSH2 0x21E0 JUMPI PUSH0 DUP1 REVERT JUMPDEST POP JUMP JUMPDEST PUSH0 DUP2 CALLDATALOAD SWAP1 POP PUSH2 0x21F1 DUP2 PUSH2 0x21CD JUMP JUMPDEST SWAP3 SWAP2 POP POP JUMP JUMPDEST PUSH0 PUSH1 0x20 DUP3 DUP5 SUB SLT ISZERO PUSH2 0x220C JUMPI PUSH2 0x220B PUSH2 0x192C JUMP JUMPDEST JUMPDEST PUSH0 PUSH2 0x2219 DUP5 DUP3 DUP6 ADD PUSH2 0x21E3 JUMP JUMPDEST SWAP2 POP POP SWAP3 SWAP2 POP POP JUMP JUMPDEST PUSH0 PUSH1 0x20 DUP3 ADD SWAP1 POP PUSH2 0x2235 PUSH0 DUP4 ADD DUP5 PUSH2 0x20DC JUMP JUMPDEST SWAP3 SWAP2 POP POP JUMP JUMPDEST PUSH2 0x2244 DUP2 PUSH2 0x21BC JUMP JUMPDEST DUP3 MSTORE POP POP JUMP JUMPDEST PUSH0 PUSH1 0x20 DUP3 ADD SWAP1 POP PUSH2 0x225D PUSH0 DUP4 ADD DUP5 PUSH2 0x223B JUMP JUMPDEST SWAP3 SWAP2 POP POP JUMP JUMPDEST PUSH0 PUSH1 0x40 DUP3 ADD SWAP1 POP DUP2 DUP2 SUB PUSH0 DUP4 ADD MSTORE PUSH2 0x227B DUP2 DUP6 PUSH2 0x20FB JUMP JUMPDEST SWAP1 POP PUSH2 0x228A PUSH1 0x20 DUP4 ADD DUP5 PUSH2 0x20DC JUMP JUMPDEST SWAP4 SWAP3 POP POP POP JUMP JUMPDEST PUSH32 0x4E487B7100000000000000000000000000000000000000000000000000000000 PUSH0 MSTORE PUSH1 0x32 PUSH1 0x4 MSTORE PUSH1 0x24 PUSH0 REVERT JUMPDEST PUSH32 0x4E6F206F70656E20766F74696E67000000000000000000000000000000000000 PUSH0 DUP3 ADD MSTORE POP JUMP JUMPDEST PUSH0 PUSH2 0x22F2 PUSH1 0xE DUP4 PUSH2 0x20EB JUMP JUMPDEST SWAP2 POP PUSH2 0x22FD DUP3 PUSH2 0x22BE JUMP JUMPDEST PUSH1 0x20 DUP3 ADD SWAP1 POP SWAP2 SWAP1 POP JUMP JUMPDEST PUSH0 PUSH1 0x20 DUP3 ADD SWAP1 POP DUP2 DUP2 SUB PUSH0 DUP4 ADD MSTORE PUSH2 0x231F DUP2 PUSH2 0x22E6 JUMP JUMPDEST SWAP1 POP SWAP2 SWAP1 POP JUMP JUMPDEST PUSH32 0x4E487B7100000000000000000000000000000000000000000000000000000000 PUSH0 MSTORE PUSH1 0x22 PUSH1 0x4 MSTORE PUSH1 0x24 PUSH0 REVERT JUMPDEST PUSH0 PUSH1 0x2 DUP3 DIV SWAP1 POP PUSH1 0x1 DUP3 AND DUP1 PUSH2 0x236A JUMPI PUSH1 0x7F DUP3 AND SWAP2 POP JUMPDEST PUSH1 0x20 DUP3 LT DUP2 SUB PUSH2 0x237D JUMPI PUSH2 0x237C PUSH2 0x2326 JUMP JUMPDEST JUMPDEST POP SWAP2 SWAP1 POP JUMP JUMPDEST PUSH0 DUP2 SWAP1 POP DUP2 PUSH0 MSTORE PUSH1 0x20 PUSH0 KECCAK256 SWAP1 POP SWAP2 SWAP1 POP JUMP JUMPDEST PUSH0 PUSH1 0x20 PUSH1 0x1F DUP4 ADD DIV SWAP1 POP SWAP2 SWAP1 POP JUMP JUMPDEST PUSH0 DUP3 DUP3 SHL SWAP1 POP SWAP3 SWAP2 POP POP JUMP JUMPDEST PUSH0 PUSH1 0x8 DUP4 MUL PUSH2 0x23DF PUSH32 0xFFFFFFFFFFFFFFFFFFFFFFFFFFFFFFFFFFFFFFFFFFFFFFFFFFFFFFFFFFFFFFFF DUP3 PUSH2 0x23A4 JUMP JUMPDEST PUSH2 0x23E9 DUP7 DUP4 PUSH2 0x23A4 JUMP JUMPDEST SWAP6 POP DUP1 NOT DUP5 AND SWAP4 POP DUP1 DUP7 AND DUP5 OR SWAP3 POP POP POP SWAP4 SWAP3 POP POP POP JUMP JUMPDEST PUSH0 DUP2 SWAP1 POP SWAP2 SWAP1 POP JUMP JUMPDEST PUSH0 PUSH2 0x2424 PUSH2 0x241F PUSH2 0x241A DUP5 PUSH2 0x1934 JUMP JUMPDEST PUSH2 0x2401 JUMP JUMPDEST PUSH2 0x1934 JUMP JUMPDEST SWAP1 POP SWAP2 SWAP1 POP JUMP JUMPDEST PUSH0 DUP2 SWAP1 POP SWAP2 SWAP1 POP JUMP JUMPDEST PUSH2 0x243D DUP4 PUSH2 0x240A JUMP JUMPDEST PUSH2 0x2451 PUSH2 0x2449 DUP3 PUSH2 0x242B JUMP JUMPDEST DUP5 DUP5 SLOAD PUSH2 0x23B0 JUMP JUMPDEST DUP3 SSTORE POP POP POP POP JUMP JUMPDEST PUSH0 SWAP1 JUMP JUMPDEST PUSH2 0x2465 PUSH2 0x2459 JUMP JUMPDEST PUSH2 0x2470 DUP2 DUP5 DUP5 PUSH2 0x2434 JUMP JUMPDEST POP POP POP JUMP JUMPDEST JUMPDEST DUP2 DUP2 LT ISZERO PUSH2 0x2493 JUMPI PUSH2 0x2488 PUSH0 DUP3 PUSH2 0x245D JUMP JUMPDEST PUSH1 0x1 DUP2 ADD SWAP1 POP PUSH2 0x2476 JUMP JUMPDEST POP POP JUMP JUMPDEST PUSH1 0x1F DUP3 GT ISZERO PUSH2 0x24D8 JUMPI PUSH2 0x24A9 DUP2 PUSH2 0x2383 JUMP JUMPDEST PUSH2 0x24B2 DUP5 PUSH2 0x2395 JUMP JUMPDEST DUP2 ADD PUSH1 0x20 DUP6 LT ISZERO PUSH2 0x24C1 JUMPI DUP2 SWAP1 POP JUMPDEST PUSH2 0x24D5 PUSH2 0x24CD DUP6 PUSH2 0x2395 JUMP JUMPDEST DUP4 ADD DUP3 PUSH2 0x2475 JUMP JUMPDEST POP POP JUMPDEST POP POP POP JUMP JUMPDEST PUSH0 DUP3 DUP3 SHR SWAP1 POP SWAP3 SWAP2 POP POP JUMP JUMPDEST PUSH0 PUSH2 0x24F8 PUSH0 NOT DUP5 PUSH1 0x8 MUL PUSH2 0x24DD JUMP JUMPDEST NOT DUP1 DUP4 AND SWAP2 POP POP SWAP3 SWAP2 POP POP JUMP JUMPDEST PUSH0 PUSH2 0x2510 DUP4 DUP4 PUSH2 0x24E9 JUMP JUMPDEST SWAP2 POP DUP3 PUSH1 0x2 MUL DUP3 OR SWAP1 POP SWAP3 SWAP2 POP POP JUMP JUMPDEST PUSH2 0x2529 DUP3 PUSH2 0x19BB JUMP JUMPDEST PUSH8 0xFFFFFFFFFFFFFFFF DUP2 GT ISZERO PUSH2 0x2542 JUMPI PUSH2 0x2541 PUSH2 0x1D1F JUMP JUMPDEST JUMPDEST PUSH2 0x254C DUP3 SLOAD PUSH2 0x2353 JUMP JUMPDEST PUSH2 0x2557 DUP3 DUP3 DUP6 PUSH2 0x2497 JUMP JUMPDEST PUSH0 PUSH1 0x20 SWAP1 POP PUSH1 0x1F DUP4 GT PUSH1 0x1 DUP2 EQ PUSH2 0x2588 JUMPI PUSH0 DUP5 ISZERO PUSH2 0x2576 JUMPI DUP3 DUP8 ADD MLOAD SWAP1 POP JUMPDEST PUSH2 0x2580 DUP6 DUP3 PUSH2 0x2505 JUMP JUMPDEST DUP7 SSTORE POP PUSH2 0x25E7 JUMP JUMPDEST PUSH1 0x1F NOT DUP5 AND PUSH2 0x2596 DUP7 PUSH2 0x2383 JUMP JUMPDEST PUSH0 JUMPDEST DUP3 DUP2 LT ISZERO PUSH2 0x25BD JUMPI DUP5 DUP10 ADD MLOAD DUP3 SSTORE PUSH1 0x1 DUP3 ADD SWAP2 POP PUSH1 0x20 DUP6 ADD SWAP5 POP PUSH1 0x20 DUP2 ADD SWAP1 POP PUSH2 0x2598 JUMP JUMPDEST DUP7 DUP4 LT ISZERO PUSH2 0x25DA JUMPI DUP5 DUP10 ADD MLOAD PUSH2 0x25D6 PUSH1 0x1F DUP10 AND DUP3 PUSH2 0x24E9 JUMP JUMPDEST DUP4 SSTORE POP JUMPDEST PUSH1 0x1 PUSH1 0x2 DUP9 MUL ADD DUP9 SSTORE POP POP POP JUMPDEST POP POP POP POP POP POP JUMP JUMPDEST PUSH32 0x566F74696E67206E6F7420666F756E6400000000000000000000000000000000 PUSH0 DUP3 ADD MSTORE POP JUMP JUMPDEST PUSH0 PUSH2 0x2623 PUSH1 0x10 DUP4 PUSH2 0x20EB JUMP JUMPDEST SWAP2 POP PUSH2 0x262E DUP3 PUSH2 0x25EF JUMP JUMPDEST PUSH1 0x20 DUP3 ADD SWAP1 POP SWAP2 SWAP1 POP JUMP JUMPDEST PUSH0 PUSH1 0x20 DUP3 ADD SWAP1 POP DUP2 DUP2 SUB PUSH0 DUP4 ADD MSTORE PUSH2 0x2650 DUP2 PUSH2 0x2617 JUMP JUMPDEST SWAP1 POP SWAP2 SWAP1 POP JUMP JUMPDEST PUSH32 0x4E487B7100000000000000000000000000000000000000000000000000000000 PUSH0 MSTORE PUSH1 0x11 PUSH1 0x4 MSTORE PUSH1 0x24 PUSH0 REVERT JUMPDEST PUSH0 PUSH2 0x268E DUP3 PUSH2 0x1934 JUMP JUMPDEST SWAP2 POP PUSH32 0xFFFFFFFFFFFFFFFFFFFFFFFFFFFFFFFFFFFFFFFFFFFFFFFFFFFFFFFFFFFFFFFF DUP3 SUB PUSH2 0x26C0 JUMPI PUSH2 0x26BF PUSH2 0x2657 JUMP JUMPDEST JUMPDEST PUSH1 0x1 DUP3 ADD SWAP1 POP SWAP2 SWAP1 POP JUMP JUMPDEST PUSH0 PUSH2 0x26D5 DUP3 PUSH2 0x1934 JUMP JUMPDEST SWAP2 POP PUSH0 DUP3 SUB PUSH2 0x26E7 JUMPI PUSH2 0x26E6 PUSH2 0x2657 JUMP JUMPDEST JUMPDEST PUSH1 0x1 DUP3 SUB SWAP1 POP SWAP2 SWAP1 POP JUMP JUMPDEST PUSH0 PUSH2 0x26FC DUP3 PUSH2 0x1934 JUMP JUMPDEST SWAP2 POP PUSH2 0x2707 DUP4 PUSH2 0x1934 JUMP JUMPDEST SWAP3 POP DUP3 DUP3 ADD SWAP1 POP DUP1 DUP3 GT ISZERO PUSH2 0x271F JUMPI PUSH2 0x271E PUSH2 0x2657 JUMP JUMPDEST JUMPDEST SWAP3 SWAP2 POP POP JUMP JUMPDEST PUSH32 0x496E76616C69642073656E646572000000000000000000000000000000000000 PUSH0 DUP3 ADD MSTORE POP JUMP JUMPDEST PUSH0 PUSH2 0x2759 PUSH1 0xE DUP4 PUSH2 0x20EB JUMP JUMPDEST SWAP2 POP PUSH2 0x2764 DUP3 PUSH2 0x2725 JUMP JUMPDEST PUSH1 0x20 DUP3 ADD SWAP1 POP SWAP2 SWAP1 POP JUMP JUMPDEST PUSH0 PUSH1 0x20 DUP3 ADD SWAP1 POP DUP2 DUP2 SUB PUSH0 DUP4 ADD MSTORE PUSH2 0x2786 DUP2 PUSH2 0x274D JUMP JUMPDEST SWAP1 POP SWAP2 SWAP1 POP JUMP JUMPDEST PUSH32 0x566F74696E6720616C7265616479206578697374210000000000000000000000 PUSH0 DUP3 ADD MSTORE POP JUMP JUMPDEST PUSH0 PUSH2 0x27C1 PUSH1 0x15 DUP4 PUSH2 0x20EB JUMP JUMPDEST SWAP2 POP PUSH2 0x27CC DUP3 PUSH2 0x278D JUMP JUMPDEST PUSH1 0x20 DUP3 ADD SWAP1 POP SWAP2 SWAP1 POP JUMP JUMPDEST PUSH0 PUSH1 0x20 DUP3 ADD SWAP1 POP DUP2 DUP2 SUB PUSH0 DUP4 ADD MSTORE PUSH2 0x27EE DUP2 PUSH2 0x27B5 JUMP JUMPDEST SWAP1 POP SWAP2 SWAP1 POP JUMP JUMPDEST PUSH32 0x596F75206172656E2774206F776E657200000000000000000000000000000000 PUSH0 DUP3 ADD MSTORE POP JUMP JUMPDEST PUSH0 PUSH2 0x2829 PUSH1 0x10 DUP4 PUSH2 0x20EB JUMP JUMPDEST SWAP2 POP PUSH2 0x2834 DUP3 PUSH2 0x27F5 JUMP JUMPDEST PUSH1 0x20 DUP3 ADD SWAP1 POP SWAP2 SWAP1 POP JUMP JUMPDEST PUSH0 PUSH1 0x20 DUP3 ADD SWAP1 POP DUP2 DUP2 SUB PUSH0 DUP4 ADD MSTORE PUSH2 0x2856 DUP2 PUSH2 0x281D JUMP JUMPDEST SWAP1 POP SWAP2 SWAP1 POP JUMP JUMPDEST PUSH32 0x566F74696E67206E6F7420666F756E6421000000000000000000000000000000 PUSH0 DUP3 ADD MSTORE POP JUMP JUMPDEST PUSH0 PUSH2 0x2891 PUSH1 0x11 DUP4 PUSH2 0x20EB JUMP JUMPDEST SWAP2 POP PUSH2 0x289C DUP3 PUSH2 0x285D JUMP JUMPDEST PUSH1 0x20 DUP3 ADD SWAP1 POP SWAP2 SWAP1 POP JUMP JUMPDEST PUSH0 PUSH1 0x20 DUP3 ADD SWAP1 POP DUP2 DUP2 SUB PUSH0 DUP4 ADD MSTORE PUSH2 0x28BE DUP2 PUSH2 0x2885 JUMP JUMPDEST SWAP1 POP SWAP2 SWAP1 POP JUMP JUMPDEST PUSH32 0x416C726561647920696E67726573736564210000000000000000000000000000 PUSH0 DUP3 ADD MSTORE POP JUMP JUMPDEST PUSH0 PUSH2 0x28F9 PUSH1 0x12 DUP4 PUSH2 0x20EB JUMP JUMPDEST SWAP2 POP PUSH2 0x2904 DUP3 PUSH2 0x28C5 JUMP JUMPDEST PUSH1 0x20 DUP3 ADD SWAP1 POP SWAP2 SWAP1 POP JUMP JUMPDEST PUSH0 PUSH1 0x20 DUP3 ADD SWAP1 POP DUP2 DUP2 SUB PUSH0 DUP4 ADD MSTORE PUSH2 0x2926 DUP2 PUSH2 0x28ED JUMP JUMPDEST SWAP1 POP SWAP2 SWAP1 POP JUMP JUMPDEST PUSH0 DUP2 SWAP1 POP SWAP3 SWAP2 POP POP JUMP JUMPDEST PUSH0 PUSH2 0x2941 DUP3 PUSH2 0x19BB JUMP JUMPDEST PUSH2 0x294B DUP2 DUP6 PUSH2 0x292D JUMP JUMPDEST SWAP4 POP PUSH2 0x295B DUP2 DUP6 PUSH1 0x20 DUP7 ADD PUSH2 0x19D5 JUMP JUMPDEST DUP1 DUP5 ADD SWAP2 POP POP SWAP3 SWAP2 POP POP JUMP JUMPDEST PUSH0 PUSH2 0x2972 DUP3 DUP5 PUSH2 0x2937 JUMP JUMPDEST SWAP2 POP DUP2 SWAP1 POP SWAP3 SWAP2 POP POP JUMP INVALID LOG2 PUSH5 0x6970667358 0x22 SLT KECCAK256 0x28 SWAP12 0xBE 0xCE 0xC 0xC7 INVALID 0xDB PUSH9 0x4115A399412C03D2 SLT 0xD6 0xC0 EXTCODEHASH PUSH25 0x679F3AEF65EF9C555864736F6C634300081600330000000000 "
		},
		"gasEstimates": {
			"creation": {
				"codeDepositCost": "2135000",
				"executionCost": "31540",
				"totalCost": "2166540"
			},
			"external": {
				"addCandidate(string,string)": "infinite",
				"addVote(uint256)": "infinite",
				"candidates(uint256)": "infinite",
				"changeOwnerVoting(address)": "24737",
				"createVoting(string,uint256)": "infinite",
				"currentVotingIndex()": "2469",
				"getCadidateByCode(uint256)": "infinite",
				"getCandidates()": "infinite",
				"getCandidatesByVoting(string)": "infinite",
				"getOwnerVoting()": "2581",
				"getSummaryVotesByVoting(string)": "infinite",
				"getVotings()": "infinite",
				"votes(uint256)": "infinite",
				"votings(uint256)": "infinite"
			},
			"internal": {
				"cadidateAlreadyIngressed(string memory)": "infinite",
				"getCadidateNumberByName(string memory)": "infinite",
				"loadVotingByName(string memory)": "infinite",
				"stringCompare(string memory,string memory)": "infinite"
			}
		},
		"methodIdentifiers": {
			"addCandidate(string,string)": "26541b56",
			"addVote(uint256)": "0383badc",
			"candidates(uint256)": "3477ee2e",
			"changeOwnerVoting(address)": "7c99fbc3",
			"createVoting(string,uint256)": "1a1625a5",
			"currentVotingIndex()": "8c68bfe7",
			"getCadidateByCode(uint256)": "0d1c0e97",
			"getCandidates()": "06a49fce",
			"getCandidatesByVoting(string)": "1004ea25",
			"getOwnerVoting()": "a3660908",
			"getSummaryVotesByVoting(string)": "089ed71e",
			"getVotings()": "05c1112d",
			"votes(uint256)": "5df81330",
			"votings(uint256)": "a598d03c"
		}
	},
	"abi": [
		{
			"inputs": [],
			"stateMutability": "nonpayable",
			"type": "constructor"
		},
		{
			"inputs": [
				{
					"internalType": "string",
					"name": "name",
					"type": "string"
				},
				{
					"internalType": "string",
					"name": "votingName",
					"type": "string"
				}
			],
			"name": "addCandidate",
			"outputs": [],
			"stateMutability": "nonpayable",
			"type": "function"
		},
		{
			"inputs": [
				{
					"internalType": "uint256",
					"name": "candidateNumber",
					"type": "uint256"
				}
			],
			"name": "addVote",
			"outputs": [],
			"stateMutability": "nonpayable",
			"type": "function"
		},
		{
			"inputs": [
				{
					"internalType": "uint256",
					"name": "",
					"type": "uint256"
				}
			],
			"name": "candidates",
			"outputs": [
				{
					"internalType": "uint256",
					"name": "codeNumber",
					"type": "uint256"
				},
				{
					"internalType": "string",
					"name": "name",
					"type": "string"
				}
			],
			"stateMutability": "view",
			"type": "function"
		},
		{
			"inputs": [
				{
					"internalType": "address",
					"name": "walletAddress",
					"type": "address"
				}
			],
			"name": "changeOwnerVoting",
			"outputs": [],
			"stateMutability": "nonpayable",
			"type": "function"
		},
		{
			"inputs": [
				{
					"internalType": "string",
					"name": "votingName",
					"type": "string"
				},
				{
					"internalType": "uint256",
					"name": "timeVote",
					"type": "uint256"
				}
			],
			"name": "createVoting",
			"outputs": [],
			"stateMutability": "nonpayable",
			"type": "function"
		},
		{
			"inputs": [],
			"name": "currentVotingIndex",
			"outputs": [
				{
					"internalType": "uint256",
					"name": "",
					"type": "uint256"
				}
			],
			"stateMutability": "view",
			"type": "function"
		},
		{
			"inputs": [
				{
					"internalType": "uint256",
					"name": "code",
					"type": "uint256"
				}
			],
			"name": "getCadidateByCode",
			"outputs": [
				{
					"components": [
						{
							"internalType": "uint256",
							"name": "codeNumber",
							"type": "uint256"
						},
						{
							"internalType": "string",
							"name": "name",
							"type": "string"
						}
					],
					"internalType": "struct Candidate",
					"name": "candidate",
					"type": "tuple"
				}
			],
			"stateMutability": "view",
			"type": "function"
		},
		{
			"inputs": [],
			"name": "getCandidates",
			"outputs": [
				{
					"components": [
						{
							"internalType": "uint256",
							"name": "codeNumber",
							"type": "uint256"
						},
						{
							"internalType": "string",
							"name": "name",
							"type": "string"
						}
					],
					"internalType": "struct Candidate[]",
					"name": "candidatesList",
					"type": "tuple[]"
				}
			],
			"stateMutability": "view",
			"type": "function"
		},
		{
			"inputs": [
				{
					"internalType": "string",
					"name": "votingName",
					"type": "string"
				}
			],
			"name": "getCandidatesByVoting",
			"outputs": [
				{
					"components": [
						{
							"internalType": "uint256",
							"name": "codeNumber",
							"type": "uint256"
						},
						{
							"internalType": "string",
							"name": "name",
							"type": "string"
						}
					],
					"internalType": "struct Candidate[]",
					"name": "candidatesList",
					"type": "tuple[]"
				}
			],
			"stateMutability": "nonpayable",
			"type": "function"
		},
		{
			"inputs": [],
			"name": "getOwnerVoting",
			"outputs": [
				{
					"internalType": "address",
					"name": "",
					"type": "address"
				}
			],
			"stateMutability": "view",
			"type": "function"
		},
		{
			"inputs": [
				{
					"internalType": "string",
					"name": "votingName",
					"type": "string"
				}
			],
			"name": "getSummaryVotesByVoting",
			"outputs": [
				{
					"components": [
						{
							"internalType": "uint256",
							"name": "candidateNumber",
							"type": "uint256"
						},
						{
							"internalType": "string",
							"name": "candidateName",
							"type": "string"
						},
						{
							"internalType": "uint256",
							"name": "totalVotes",
							"type": "uint256"
						}
					],
					"internalType": "struct SummaryVote[]",
					"name": "votesList",
					"type": "tuple[]"
				}
			],
			"stateMutability": "nonpayable",
			"type": "function"
		},
		{
			"inputs": [],
			"name": "getVotings",
			"outputs": [
				{
					"components": [
						{
							"internalType": "string",
							"name": "name",
							"type": "string"
						},
						{
							"internalType": "uint256",
							"name": "limitDate",
							"type": "uint256"
						},
						{
							"internalType": "uint256[]",
							"name": "codeCandidates",
							"type": "uint256[]"
						}
					],
					"internalType": "struct Voting[]",
					"name": "votingsList",
					"type": "tuple[]"
				}
			],
			"stateMutability": "view",
			"type": "function"
		},
		{
			"inputs": [
				{
					"internalType": "uint256",
					"name": "",
					"type": "uint256"
				}
			],
			"name": "votes",
			"outputs": [
				{
					"internalType": "uint256",
					"name": "candidateNumber",
					"type": "uint256"
				},
				{
					"internalType": "string",
					"name": "votingName",
					"type": "string"
				},
				{
					"internalType": "uint256",
					"name": "date",
					"type": "uint256"
				}
			],
			"stateMutability": "view",
			"type": "function"
		},
		{
			"inputs": [
				{
					"internalType": "uint256",
					"name": "",
					"type": "uint256"
				}
			],
			"name": "votings",
			"outputs": [
				{
					"internalType": "string",
					"name": "name",
					"type": "string"
				},
				{
					"internalType": "uint256",
					"name": "limitDate",
					"type": "uint256"
				}
			],
			"stateMutability": "view",
			"type": "function"
		}
	]
}